:03000000020826CD
:0C082600787FE4F6D8FD75813D02086D76
:090AB300013700012F01013CFF95
:10000300E536703D7536017F431209E0AC07E41213
:10001300028FE4FBFA794C784212016F8F248E230E
:100023008D228C217F411209E0AC07E412028FE498
:10003300FBFA794C784212016F8F288E278D268C1C
:02004300252274
:1008B200E52C600302093B752C01120A9BAF1C7EDA
:1008C20000EF64087017AD2FFCED64027002C200E5
:1008D200ED64034C7004752F0122052F22E52F646D
:1008E200037009EF64044E7003B20022E51CFB7A28
:1008F200006402700D8528338527328526318525CF
:100902003022EB64014A700785342D85352E22E5AD
:100912001A640170140537C3E537946474809480B7
:10092200400AE4F537D2028003E4F53730020AE5E3
:0A0932001B64017004C202B201222E
:10047500E52B6003020751752B01E52F24FE700360
:1004850002054D147003020675240260030207512C
:10049500900B12E493F509750AFF750BFFAE34AFA7
:1004A500357C277D101203447C007D0A120344ED40
:1004B500900B0393F515AE34AF357C037DE812033D
:1004C500447C007D0A120344ED93F516AE34AF3536
:1004D5007C007D641203447C007D0A120344ED9385
:1004E500F517AE34AF357C007D0A1203447C007DE0
:1004F5000A120344ED93F518AE34AF357C007D0A3E
:10050500120344ED93F51975110374122511F8E6DC
:10051500FF900B03E493FEEFB5060A76FF0511E5A0
:1005250011640770E5751103C3E51194087480948F
:1005350080400302075174122511F8E6FF7409255E
:1005450011F8A607051180E07509C87B407A427944
:100555000F7800AF3BAE3AAD39AC381203D5E47B2A
:100565000AFAF9F81203D5EB900B0393F5137BA068
:100575007A8679017800AF3BAE3AAD39AC381203D3
:10058500D5E47B0AFAF9F81203D5EB900B0393F542
:1005950014E47B107A27F9F8AF3BAE3AAD39AC38A5
:1005A5001203D5E47B0AFAF9F81203D5EB900B0395
:1005B50093F515E47BE87A03F9F8AF3BAE3AAD392C
:1005C500AC381203D5E47B0AFAF9F81203D5EB909F
:1005D5000B0393F516E47B64FAF9F8AF3BAE3AAD3D
:1005E50039AC381203D5E47B0AFAF9F81203D5EBD6
:1005F500900B0393F517E47B0AFAF9F8AF3BAE3A93
:10060500AD39AC381203D5E47B0AFAF9F81203D5F3
:10061500EB900B0393F518E47B0AFAF9F8AF3BAEC0
:100625003AAD39AC381203D5EB900B0393F5197538
:10063500110174122511F8E6FF900B03E493FEEF08
:10064500B5060A76FF0511E511640770E575110316
:10065500C3E5119408748094804003020751741215
:100665002511F8E6FF74092511F8A607051180E0A4
:100675007509C1750ABF750DFF750CFFA200B35052
:100685005C900B04E493F50BAF24AE23AD22AC21B3
:100695001202C3EF75F00A84E5F0900B0393547FC3
:1006A500F50EE4FFFE7D207C41AB24AA23A922A8F8
:1006B500211200661202C37C007D0A1203447403F2
:1006C5002DF582740B3CF583E493F50FE4FFFE7D75
:1006D500C87C42AB24AA23A922A8218054900B06EA
:1006E500E493F50BAF28AE27AD26AC251202C3EF78
:1006F500900B0393547FF50EE4FFFE7D207C41AB08
:1007050028AA27A926A8251200661202C37C007D07
:100715000A12034474032DF582740B3CF583E493AC
:10072500F50FE4FFFE7DC87C42AB28AA27A926A8C1
:10073500251200661202C37C007D0A12034474036D
:0C0745002DF582740B3CF583E493F51055
:010751002285
:10093C007511FFE53D7067753D01AF33AE32AD31DA
:10094C00AC30EC4D4E4F6012AB28AA27A926A82537
:10095C0012020C600540035311FEE52E452D600E6E
:10096C00D3E535952EE534952D40035311FDE52F38
:10097C0024FE600C14600E2402700D5311FB8008D1
:10098C005311F780035311EF3001037511FFE5117B
:0E099C00653C600A85113CAD117F80120B3E58
:0109AA00222A
:0E0B130000007F2E7E997DF5DDFEDEFCDFFA10
:010B210022B1
:100A6400120ADE120B31120ACA7F411209E0120B7C
:0F0A7400131200031208B212047512093C80F22B
:030063000207523F
:10075200C0E0C0F0C083C082C0D075D000C000C06D
:1007620001C002C003C004C005C006C007120A10BF
:100772000536C3E53694C87480948040037536000C
:10078200052CC3E52C940A748094804003752C00D8
:10079200052BC3E52B94C8748094804003752B000D
:1007A200053DC3E53D9401748094804003753D008E
:1007B200052AE52A70020529C394E8E52994034035
:1007C20048752900752A00C28CAF8CEFAD8AF534CA
:1007D200EDF535AC34E412028AA804A905AA06ABE9
:1007E20007E4FFFE7D807C3F12016F7B007A247953
:1007F2007478491200661202C38F3B8E3A8D398C8F
:1008020038758C00758A00D28CD007D006D005D0FE
:1008120004D003D002D001D000D0D0D082D083D077
:04082200F0D0E03200
:100ADE00538E7F5389F0438905E4F58AF58CC28DD8
:030AEE00D28C2285
:0D0B3100538EFB75D71875D6FC438E10222D
:0D0B3E00E5A0541F4FF5A08D8053A01F228D
:100ACA00E4FD7FA0120B3E7DFF7F80120B3E43AFF9
:040ADA0004D2AF2271
:04004500D2A07F05C1
:10004900000000000000000000000000000000AEF9
:06005900071FEE70EB2210
:0F0B2200D2A1120045C2A17F05120049C2A02234
:0C0B4B00C2A1120045D2A17F05020049A2
:0209AB00AD0796
:1009AD00E4FCECC39408748094805024C2A07F05AD
:1009BD00120049ED30E704D2A18002C2A17F0512D9
:1009CD000049D2A0ED25E0FD7F051200490C80D233
:0209DD00C2A0B6
:0109DF0022F5
:100A3E00E4FCECC39408748094805017120045EDCA
:100A4E0025E0FD30A103430501C2A07F0512004938
:050A5E000C80DFAF0574
:010A63002270
:100AF100120045A2A1E433FDC2A07F05120049AF57
:010B010005EE
:010B020022D0
:100A8300C2A0EF24FF92A17F05120049120045C2C4
:080A9300A0D2A17F0502004979
:100A9B00E5B0540FF4FF53070FE51A6FFE5FF51C1B
:070AAB00EFF45EF51B8F1A4A
:010AB2002221
:100B0300C0F9A4B0999282F880908883C6A1868E9A
:0D0ABC000809FFFFFFFFFFFFFFFF0108001B
:100A1000E4FD7FC0120B3E74092508F8E6FD7FE077
:100A2000120B3EAF08A8077401088002C333D8FC3C
:0D0A3000FD7FC0120B3EE508045407F508D9
:010A3D002296
:0209E0008F1175
:1009E200120B227F901209AB120AF1AF111209AB5E
:1009F200120AF1120B227F911209AB120AF1120AAA
:0D0A02003E8F127F01120A83120B4BAF12C0
:010A0F0022C4
:10006600EC4D6011E8497017ED33EC3304600DE494
:10007600FCFFFEFD22E933E8330470F802032F1279
:1000860002FA58046009E4CC24815006285009027B
:100096000339284003020336C0E0EB4A7044B980B6
:1000A60006D0E0FB020325EF4E701CBD8008EBFF77
:1000B600EAFEE9FD80EBE98DF0A4FEE5F002014FD2
:1000C600E9CDF9EAFEEBFFEF89F0A4FCE5F0CE8975
:1000D600F0A42EFFE435F0CD89F0A42DFEE435F032
:1000E6008067EF4E7005BD80D780C3EF8BF0A4AC60
:1000F600F0EE8BF0A42CFCE435F0F8EF8AF0A42C9B
:10010600E5F038FCE433CB8DF0A42CFCE5F03BF8AD
:10011600EE8AF0A42CFCE5F038F8E433CF89F0A49D
:100126002CFCE5F038CF3400CE89F0A42FFFE5F0A3
:100136003EFEE433C98DF0A42EFEE5F039CD8AF0FB
:10014600A42FFFE5F03EFEE43DFD33D0E0FB500773
:100156000BBB000F020339EC2CFCEF33FFEE33FE32
:06016600ED33FD02031160
:10016C00020339EC5D046005E85904700302032FA7
:10017C001202FA580460F6EC4860F2EC7004FDFED2
:10018C00FF22C860DB2481C85009C3986002500666
:10019C000203369850CAF582E9294B4A7005AB82A6
:1001AC0002032575F0007C1A7880C3EF9BEE9AED64
:1001BC0099400DC3EF9BFFEE9AFEED99FDE842F0DE
:1001CC00DC23ACF0D0E0FFD0E0FED0E0FDAB822031
:1001DC00E7101BEB60BAEC2CFCEF33FFEE33FEEDBB
:1001EC0033FD020311E803F830E705C0F075F000A9
:1001FC00EF2FFFEE33FEED33FD40B830E7C280AA9F
:10020C0074F8CC6480CCC86480C8F58204604FC399
:10021C00EB9FF5F0EA9E42F0E99D42F0E89C45F038
:10022C00603C501DE5825FFFE582D313CB5BCBF4C2
:10023C002B5582FB50280ABA002409B900200880EB
:10024C001DE5825BFBE582D313CF5FCFF4C3132F85
:10025C005582FF50090EBE00050DBD00010CC3EB0D
:10026C009FF5F0EA9E42F0E99D42F0E89C45F06073
:09027C0007CC4820E701B3EC2295
:1002850075F020800E75F010800575F0087D007EF4
:10029500007F003392D530D503120467EC3340104C
:1002A500EF33FFEE33FEED33FDEC33FCD5F0ED22FD
:0E02B500E5F0247EA2D513CC92E7CDCEFF2239
:1002C300EDD2E7CD33EC3392D524814006E4FFFE33
:1002D300FDFC22FCE4CFCECDCC24E0501174FF8092
:1002E300EDC3CC13CCCD13CDCE13CECF13CF04702F
:0702F300F030D5DE020467C4
:1002FA00E9D2E7C933E833F892D5EDD2E7CD33EC4A
:07030A0033FC5002B2D522C2
:10031100EC30E7100FBF000C0EBE00080DBD00044D
:100321000BEB6014A2D5EB13FCED92E7FD2274FFF9
:10033100FCFDFEFF22E480F8A2D574FF13FC7D8052
:03034100E480EF66
:10083200020A64E493A3F8E493A34003F68001F26E
:1008420008DFF48029E493A3F85407240CC8C333C7
:10085200C4540F4420C8834004F456800146F6DF96
:10086200E4800B0102040810204080900AB3E47E69
:10087200019360BCA3FF543F30E509541FFEE4938B
:10088200A360010ECF54C025E060A840B8E493A352
:10089200FAE493A3F8E493A3C8C582C8CAC583CA7D
:1008A200F0A3C8C582C8CAC583CADFE9DEE780BE35
:010AC900002C
:10034400BC000BBE0029EF8DF084FFADF022E4CC9D
:10035400F875F008EF2FFFEE33FEEC33FCEE9DEC66
:10036400984005FCEE9DFE0FD5F0E9E4CEFD22EDAC
:10037400F8F5F0EE8420D21CFEADF075F008EF2FF6
:10038400FFED33FD4007985006D5F0F222C398FDE7
:050394000FD5F0EA2284
:1003990075F008758200EF2FFFEE33FECD33CDCC1B
:1003A90033CCC58233C5829BED9AEC99E58298409E
:1003B9000CF582EE9BFEED9AFDEC99FC0FD5F0D67B
:1003C900E4CEFBE4CDFAE4CCF9A88222B800C1B9A5
:1003D9000059BA002DEC8BF084CFCECDFCE5F0CBE3
:1003E900F97818EF2FFFEE33FEED33FDEC33FCEB1C
:1003F90033FB10D703994004EB99FB0FD8E5E4F9D7
:10040900FA227818EF2FFFEE33FEED33FDEC33FCC3
:10041900C933C910D7059BE99A4007EC9BFCE99AB7
:10042900F90FD8E0E4C9FAE4CCFB2275F010EF2FFC
:10043900FFEE33FEED33FDCC33CCC833C810D707FC
:100449009BEC9AE899400AED9BFDEC9AFCE899F837
:0E0459000FD5F0DAE4CDFBE4CCFAE4C8F922CA
:0E046700C3E49FFFE49EFEE49DFDE49CFC22A6
:00000001FF
