:03000000020ABB36
:0C0ABB00787FE4F6D8FD758140020B0244
:100CC300012901C101C102022507D0022700000347
:0A0CD30034130305042A000000009A
:10080400E530600302091C753001F511C3E511944C
:100814000374809480500D7B007A007934120C3B71
:10082400051180E8AE3BAD3AAC39EC335005E4FF3A
:100834000208D7E47FF47E01FDFCAB3CAA3BA93A55
:10084400A839C31203B3500DE4F540F53F753E805B
:10085400753D3F8069AE25AF26E4FCFDAB3CAA3B69
:10086400A93AA839C31203B35049E526240CFDE57F
:100874002534FEFCE4120211A804A905AA06AB075C
:10088400E4FFFE7D807C4012016FC004C005C006F9
:10089400C007AF3CAE3BAD3AAC39EC12020CD0030E
:1008A400D002D001D0001200668F408E3F8D3E8C66
:1008B4003D800BE4F540F53F753EA0753D40E4FFF7
:1008C400FE7D4C7C42AB40AA3FA93EA83D12006687
:1008D40012024A120D31AF2DAE2CAD2BAC2AAB3C1B
:1008E400AA3BA93AA839D31203B3402C853C2D85E1
:1008F4003B2C853A2B85392AE4F511C3E511940381
:1009040074809480501274342511F8E6FF743125F4
:0809140011F8A607051180E3AC
:01091C0022B8
:100A0000E5246003020ABA752401120D99AF1C7E19
:100A100000EF648870150529D3E529940474809447
:100A2000804003752901C201C20222EF64844E7026
:100A300013AF29FEEF64027002B201EF64044E703E
:100A400079B20222E52964027070AF1CFEEF64489F
:100A5000702E300115E52864847004E52764036076
:100A60005974642528F528E48033E5266428700449
:100A7000E5256423604474E82526F5267403803652
:100A8000EF64444E7034300119E528647C7004E54D
:100A90002764FC6025749C2528F52874FF3527F50C
:100AA0002722E52664E87004E5256403600C7418C9
:0B0AB0002526F52674FC3525F52522CF
:10049700E5236003020803752301E52924FE7003A1
:1004A7000205C01470030206A31470030206D924C0
:1004B700036003020803900DF5E493F509750AFF3D
:1004C700750BFFAF3CAE3BAD3AAC39EC3350030292
:1004D70005B0E47B107A27F9F8120B47E47B0AFA98
:1004E700F9F8120B47EB900DE693F515E47BE87AE4
:1004F70003F9F8AF3CAE3BAD3AAC39120B47E47B9E
:100507000AFAF9F8120B47EB900DE693F516E47B20
:1005170064FAF9F8AF3CAE3BAD3AAC39120B47E49D
:100527007B0AFAF9F8120B47EB900DE693F517E4FF
:100537007B0AFAF9F8AF3CAE3BAD3AAC39120B4740
:10054700E47B0AFAF9F8120B47EB900DE693F518DE
:10055700E47B0AFAF9F8AF3CAE3BAD3AAC39120B83
:1005670047EB900DE693F51975110374122511F8F1
:10057700E6FF900DE6E493FEEFB5060A76FF051158
:10058700E511640770E5751103C3E51194087480DC
:100597009480400302080374122511F8E6FF7409DA
:1005A7002511F8A607051180E0750CFF750DFF757D
:1005B7000EFF750FC77510C72275098C300105909E
:1005C7000DE88003900DE7E493FF8F0A750BFF7525
:1005D7000CFFA201B35054AE25AF267C037DE81271
:1005E700031A7C007D0A12031AED900DE693F50DB0
:1005F700AE25AF267C007D6412031A7C007D0A12AB
:10060700031AED93F50EAE25AF267C007D0A120383
:100617001A7C007D0A12031AED93F50FAE25AF265B
:100627007C007D0A12031AED020800C3E5276480E7
:10063700948040047FFF80027FBF8F0DE528452708
:10064700604DAF28AE27120E2B7C007D6412036F1E
:100657007C007D0A12036FED900DE693F50EAF282F
:10066700AE27120E2B7C007D0A12036F7C007D0AD9
:1006770012036FED900DE693F50FAF28AE27120E1C
:100687002B7C007D0A12036FED900DE602080075C2
:100697000EFF750FFF900DE6E4020800E534C45421
:1006A7000F900DE693F509E534540F93F50A750B92
:1006B700BFE535C4540F93F50CE535540F93F50D8D
:1006C700750EBFE536C4540F93F50FE536540F0288
:1006D7000800750989300205900DF08003900DF52B
:1006E700E493FF8F0AA202B340030207D3750BFFFF
:1006F700E47B107A27F9F8AF2DAE2CAD2BAC2A127C
:100707000B47E47B0AFAF9F8120B47EB900DE693D7
:10071700F515E47BE87A03F9F8AF2DAE2CAD2BACD9
:100727002A120B47E47B0AFAF9F8120B47EB900DF4
:10073700E693F516E47B64FAF9F8AF2DAE2CAD2BF2
:10074700AC2A120B47E47B0AFAF9F8120B47EB9035
:100757000DE693F517E47B0AFAF9F8AF2DAE2CAD49
:100767002BAC2A120B47E47B0AFAF9F8120B47EB7A
:10077700900DE693F518E47B0AFAF9F8AF2DAE2C45
:10078700AD2BAC2A120B47EB900DE693F5197511BB
:100797000374122511F8E6FF900DE6E493FEEFB51A
:1007A700060A76FF0511E511640770E5751103C3A5
:1007B700E511940874809480504274122511F8E66C
:1007C700FF74092511F8A607051180E3E531C45424
:1007D7000F900DE693F50BE531540F93F50CE532C9
:1007E700C4540F93F50DE532540F93F50EE533C45A
:0C07F700540F93F50FE533540F93F510E9
:0108030022D2
:100003007511FFE529640170063000035311FEAE3C
:1000130025AF26E4FCFDAB3CAA3BA93AA839D31291
:1000230003B340063000035311FDAE3BAC39EC3350
:1000330050035311FDE5376511600A851137AD1182
:050043007F80120E1287
:010048002295
:100D1100120DC1120E057B007A007934120B8B1271
:100D21000D85120804120A0012049712000380F2C2
:0300630002091D72
:10091D00C0E0C0F0C083C082C0D075D000C000C0A0
:10092D0001C002C003C004C005C006C007120C6C94
:10093D000530C3E53094C874809480400375300051
:10094D000524C3E524940A74809480400375240023
:10095D000523C3E5239432748094804003752300EE
:10096D000522E52270020521C394E8E52194034098
:10097D003A752100752200C28CAF8CEFAD8AF52E31
:10098D00EDF52FAE27AF28AB07AA06EA3395E0F9B0
:10099D00F8E52F2BF53CE52E3AF53BE439F53AE435
:1009AD0038F539758C00758A00D28C0538C3E53859
:1009BD0094C8748094804020753800E529640160E6
:1009CD0015AE25AF26E4FCFDAB3CAA3BA93AA839F0
:1009DD00D31203B34002B200D007D006D005D00425
:1009ED00D003D002D001D000D0D0D082D083D0F0AF
:0309FD00D0E03215
:100DC100538EFB5389F0438905E4F58AF58CC28D76
:030DD100D28C229F
:0D0E0500538EFB75D71875D6FC438E102256
:0D0E1200E5A0541F4FF5A08D8053A01F22B6
:100D8500E4FD7FA0120E127DFF7F80120E1243AF8D
:040D950004D2AF22B3
:04004900D2A07F0AB8
:10004D00000000000000000000000000000000AEF5
:06005D00071FEE70EB220C
:0F0DF600D2A1120049C2A17F0A12004DC2A02251
:0C0E1F00C2A1120049D2A17F0A02004DBE
:020C0600AD0738
:100C0800E4FCECC39408748094805024C2A07F0A4A
:100C180012004DED30E704D2A18002C2A17F0A1272
:100C2800004DD2A0ED25E0FD7F0A12004D0C80D2C8
:020C3800C2A058
:010C3A002297
:100CEB00E4FCECC39408748094805017120049ED17
:100CFB0025E0FD30A103430501C2A07F0A12004D80
:050D0B000C80DFAF05C4
:010D100022C0
:100DD400120049A2A1E433FDC2A07F0A12004DAF64
:010DE4000509
:010DE50022EB
:100D6D00C2A0EF24FF92A17F0A12004D120049C2CA
:080D7D00A0D2A17F0A02004D83
:100C9A007FFFC2B2C2B3D2C2D2C420C4027F7020C4
:100CAA00C2027FB0D2B2D2B3C2C2C2C420B303431B
:080CBA00070720B20343070BFA
:010CC200220F
:100D9900120C9AEFF4FF651AFE5FF51CEFF45EF58D
:030DA9001B8F1A83
:010DAC002224
:100DE600C0F9A4B0999282F880908883C6A1868EB5
:0D0CDD000809FFFFFFFFFFFFFFFF010800F8
:100C6C00E4FD7FC0120E1274092508F8E6FD7FE042
:100C7C00120E12AF08A8077401088002C333D8FC07
:0D0C8C00FD7FC0120E12E508045407F508A4
:010C99002238
:100D5100E4FEEEC3940874809480500FC297EF13A1
:0B0D610092A3EFC313FFD2970E80E7B0
:010D6C002264
:100DAD00C29300C29700D29300120D51AF05120DE0
:040DBD0051C293226A
:100BC900E4FDC29300C29700D29300120D51E4FFD5
:100BD900EFC39408748094805011C297EDC313FD3C
:100BE90030A303430580D2970F80E5C29300C297D3
:0C0BF90000D29700C2A300D2A300AF05F9
:010C050022CC
:060B8B008B118A12891390
:100B9100E4FD7F8E120DADE4FCECC39403748094EC
:100BA10080501EEC25E0FFC374849FFFAB11AA1295
:100BB100A9138C827583001202CBFD120DAD0C803E
:080BC100D87D807F8E020DAD8E
:060C3B008B128A138914DC
:100C4100E4FCECC3940374809480501EEC25E0FF17
:100C5100C374859FFF120BC9AB12AA13A9148C820E
:0A0C6100758300EF1202F80C80D832
:010C6B002266
:100D31008F12120DF67F90120C06120DD47F401205
:100D41000C06120DD4AF12120C06120DD4020E1F96
:10006600EC4D6011E8497017ED33EC3304600DE494
:10007600FCFFFEFD22E933E8330470F80202B612F3
:10008600028158046009E4CC2481500628500902F4
:1000960002C02840030202BDC0E0EB4A7044B980AA
:1000A60006D0E0FB0202ACEF4E701CBD8008EBFFF1
:1000B600EAFEE9FD80EBE98DF0A4FEE5F002014FD2
:1000C600E9CDF9EAFEEBFFEF89F0A4FCE5F0CE8975
:1000D600F0A42EFFE435F0CD89F0A42DFEE435F032
:1000E6008067EF4E7005BD80D780C3EF8BF0A4AC60
:1000F600F0EE8BF0A42CFCE435F0F8EF8AF0A42C9B
:10010600E5F038FCE433CB8DF0A42CFCE5F03BF8AD
:10011600EE8AF0A42CFCE5F038F8E433CF89F0A49D
:100126002CFCE5F038CF3400CE89F0A42FFFE5F0A3
:100136003EFEE433C98DF0A42EFEE5F039CD8AF0FB
:10014600A42FFFE5F03EFEE43DFD33D0E0FB500773
:100156000BBB000F0202C0EC2CFCEF33FFEE33FEAC
:06016600ED33FD020298DA
:10016C000202C0EC5D046005E8590470030202B69B
:10017C00120281580460F6EC4860F2EC7004FDFE4B
:10018C00FF22C860DB2481C85009C3986002500666
:10019C000202BD9850CAF582E9294B4A7005AB8220
:1001AC000202AC75F0007C1A7880C3EF9BEE9AEDDE
:1001BC0099400DC3EF9BFFEE9AFEED99FDE842F0DE
:1001CC00DC23ACF0D0E0FFD0E0FED0E0FDAB822031
:1001DC00E7101BEB60BAEC2CFCEF33FFEE33FEEDBB
:1001EC0033FD020298E803F830E705C0F075F00023
:1001FC00EF2FFFEE33FEED33FD40B830E7C280AA9F
:10020C0075F020800E75F010800575F0087D007E6D
:10021C00007F003392D530D5031203A5EC33401088
:10022C00EF33FFEE33FEED33FDEC33FCD5F0ED2276
:0E023C00E5F0247EA2D513CC92E7CDCEFF22B2
:10024A00EDD2E7CD33EC3392D524814006E4FFFEAC
:10025A00FDFC22FCE4CFCECDCC24E0501174FF800B
:10026A00EDC3CC13CCCD13CDCE13CECF13CF0470A8
:07027A00F030D5DE0203A500
:10028100E9D2E7C933E833F892D5EDD2E7CD33ECC3
:0702910033FC5002B2D5223C
:10029800EC30E7100FBF000C0EBE00080DBD0004C7
:1002A8000BEB6014A2D5EB13FCED92E7FD2274FF73
:1002B800FCFDFEFF22E480F8A2D574FF13FC7D80CC
:0302C800E480EFE0
:100AC700020D11E493A3F8E493A34003F68001F227
:100AD70008DFF48029E493A3F85407240CC8C33330
:100AE700C4540F4420C8834004F456800146F6DFFF
:100AF700E4800B0102040810204080900CC3E47EC0
:100B0700019360BCA3FF543F30E509541FFEE493F3
:100B1700A360010ECF54C025E060A840B8E493A3BA
:100B2700FAE493A3F8E493A3C8C582C8CAC583CAE5
:100B3700F0A3C8C582C8CAC583CADFE9DEE780BE9D
:010CEA000009
:1002CB00BB010CE58229F582E5833AF583E02250E8
:1002DB0006E92582F8E622BBFE06E92582F8E22232
:0D02EB00E58229F582E5833AF583E493224C
:1002F800F8BB010DE58229F582E5833AF583E8F03C
:10030800225006E92582C8F622BBFE05E92582C8E7
:02031800F222CF
:10031A00BC000BBE0029EF8DF084FFADF022E4CCC7
:10032A00F875F008EF2FFFEE33FEEC33FCEE9DEC90
:10033A00984005FCEE9DFE0FD5F0E9E4CEFD22EDD6
:10034A00F8F5F0EE8420D21CFEADF075F008EF2F20
:10035A00FFED33FD4007985006D5F0F222C398FD11
:05036A000FD5F0EA22AE
:10036F00C2D5EC30E709B2D5E4C39DFDE49CFCEEA9
:10037F0030E715B2D5E4C39FFFE49EFE12031AC304
:10038F00E49DFDE49CFC800312031A30D507C3E4FF
:06039F009FFFE49EFE2218
:100B4700C2D5E830E70FB2D5E4C39BFBE49AFAE4D9
:100B570099F9E498F8EC30E717B2D5120B7D120437
:100B670005E4C39BFBE49AFAE499F9E498F8800357
:100B770012040530D50DE4C39FFFE49EFEE49DFDFE
:040B8700E49CFC22CC
:0E03A500C3E49FFFE49EFEE49DFDE49CFC2269
:1003B300EB9FF5F0EA9E42F0E99D42F0EC6480C8C1
:0603C30064809845F02261
:0C0E2B00EE30E707C3E49FFFE49EFE22C8
:1003C90075F008758200EF2FFFEE33FECD33CDCCEB
:1003D90033CCC58233C5829BED9AEC99E58298406E
:1003E9000CF582EE9BFEED9AFDEC99FC0FD5F0D64B
:1003F900E4CEFBE4CDFAE4CCF9A88222B800C1B975
:100409000059BA002DEC8BF084CFCECDFCE5F0CBB2
:10041900F97818EF2FFFEE33FEED33FDEC33FCEBEB
:1004290033FB10D703994004EB99FB0FD8E5E4F9A6
:10043900FA227818EF2FFFEE33FEED33FDEC33FC93
:10044900C933C910D7059BE99A4007EC9BFCE99A87
:10045900F90FD8E0E4C9FAE4CCFB2275F010EF2FCC
:10046900FFEE33FEED33FDCC33CCC833C810D707CC
:100479009BEC9AE899400AED9BFDEC9AFCE899F807
:0E0489000FD5F0DAE4CDFBE4CCFAE4C8F9229A
:00000001FF
