:030000000202FBFE
:0C02FB00787FE4F6D8FD758128020342EC
:10070500C101C182030E083000010A32C180C10354
:08071500C1040112FF011300F1
:10053100E50C704C750C017B007A00790E1206DD1A
:100541007F431205FAAC07E41201BEE4FBFA797F9E
:100551007843120117E4FBFA79C6784212000E12B1
:1005610001F28F1130020DE511C3950A5003D20338
:1005710022C20322E511C3950A5003D20422C20408
:010581002257
:10047400E50970647509011207A2E528B40102B206
:100484000230023FE52864027027B201300111FBFB
:100494007A00790A752502FD1204DD850A0D8011A2
:1004A4007B007A00790D752502E4FD120582850D25
:1004B4000A300124E528B40402050DE528B408181F
:1004C400150D22E528B40202B200E528B40402D2D4
:0904D40003E528B40802C203226A
:1003FE00E5087071750801A201B3503AE50EC454B8
:10040E000F90081393F516E50E540F93F517751804
:10041E00BFE50FC4540F93F519E50F540F93F51A5A
:10042E00751BFFE51175F00A8475F00A84E5F093EB
:10043E00F51CE51180267516BF7517BF7518BF75AB
:10044E0019FF751AFF751BFFE50D75F00A8475F01F
:10045E000A84E5F090081393F51CE50D75F00A84F7
:06046E00E5F093F51D22EC
:10072B00E514701E7514013002057521FE800375EA
:10073B0021FDE5126521600A852112AD217F801212
:02074B00083272
:01074D002289
:1006B300E4FDE50B7023750B01300303430510A222
:1006C30002B35009300006300403430540ED6513BF
:0906D30060078D137FA0120832AC
:0106DC0022FB
:10074E001208021207CA7B007A00790E12062A12CC
:10075E0005311204741203FE12072B1206B380EF3A
:03000B0002038766
:10038700C0E0C0F0C083C082C0D075D000C000C03C
:1003970001C002C003C004C005C006C0070514E5BC
:1003A70014C3940A40037514000509E509C3940AA8
:1003B7004003750900050CE50CC394644003750CF4
:1003C700000508E508C394C84003750800050BE558
:1003D7000BC394C84003750B00120659D007D0060B
:1003E700D005D004D003D002D001D000D0D0D08225
:0703F700D083D0F0D0E0320A
:0D083200E5A0541F4FF5A08D8053A01F229C
:1007CA00E4FD7FA01208327DFF7F80120832D2A991
:0307DA00D2AF2279
:10080200538E7F5389F0758A18758CFCC28DD28CF9
:0108120022C3
:04083F00D2A07F05BF
:0808430000AE071FEE70F92260
:0F082300D2A112083FC2A17F05120843C2A02232
:0C084B00C2A112083FD2A17F05020843A1
:02068700AD07BD
:10068900E4FCC2A07F05120843ED30E704D2A18043
:1006990002C2A17F05120843D2A0ED25E0FD7F0526
:0906A9001208430CBC08DBC2A0DE
:0106B2002225
:10076E00E4FC12083FED25E0FD30A103430501C274
:0C077E00A07F051208430CBC08E8AF0582
:01078A00224C
:1007F00012083FA2A1E433FDC2A07F05120843AF57
:0108000005F2
:0108010022D4
:10078B00C2A0A20592A17F0512084312083FC2A086
:07079B00D2A17F0502084313
:10081300C0F9A4B0999282F880908883C6A1868E8D
:0D071D00081601000000000000000115009A
:10065900E4FD7FC012083274162515F8E6FD7FE027
:10066900120832AF157401A807088002C333D8FCF9
:0D067900FD7FC0120832E515045407F51589
:010686002251
:1007A200E5B0540FF4FF6526FE5FF528EFF45EF521
:0307B200278F2668
:0107B5002221
:1007DD00E4FEC297EF1392A3EFC313FFD2970EBEA1
:0207ED0008F012
:0107EF0022E7
:1007B600C29300C29700D293001207DDAF0512075D
:0407C600DDC29322DB
:1005C600E4FDC29300C29700D293001207DDE4FF58
:1005D600C297EDC313FD30A303430580D2970FBF27
:1005E60008EEC29300C29700D29700C2A300D2A31E
:0305F60000AF054E
:0105F90022DF
:10062A00E4FD7F8E1207B6120273FD7F841207B6AD
:10063A0090000112028CFD7F821207B6900002120E
:0F064A00028CFD7F801207B67D807F8E0207B67F
:0606DD008B218A22892313
:1006E300E4FCEC25E0FFC374859FFF1205C6AB2134
:1006F300AA22A9238C82758300EF1202CB0CBC03C0
:01070300E114
:0107040022D2
:0205FA008F214F
:1005FC001208237F901206871207F0AF211206878C
:10060C001207F01208237F911206871207F01207C7
:0D061C006E8F22D20512078B12084BAF2201
:0106290022AE
:100582008B218A2289238D241208237FA0120687B9
:100592001207F0AF241206871207F0AF251525EFD8
:1005A200601FAB210523E523AA227002052214F95C
:1005B200120273FF1206871207F07FC812084380E7
:0405C200DA02084B06
:1004DD008B218A2289238D241208237FA01206875F
:1004ED001207F0AF241206871207F01208237FA11E
:1004FD001206871207F0AF251525EF602412076E3F
:10050D00AB210523E523AA227002052214F9EF126F
:10051D0002B9E5256004C2058002D20512078B8061
:04052D00D502084BA0
:10000E00EC4D6011E8497017ED33EC3304600DE4EC
:10001E00FCFFFEFD22E933E8330470F802025E12A3
:10002E00022958046009E4CC2481500628500902A4
:10003E000268284003020265C0E0EB4A7044B980B2
:10004E0006D0E0FB020254EF4E701CBD8008EBFFA1
:10005E00EAFEE9FD80EBE98DF0A4FEE5F00200F783
:10006E00E9CDF9EAFEEBFFEF89F0A4FCE5F0CE89CD
:10007E00F0A42EFFE435F0CD89F0A42DFEE435F08A
:10008E008067EF4E7005BD80D780C3EF8BF0A4ACB8
:10009E00F0EE8BF0A42CFCE435F0F8EF8AF0A42CF3
:1000AE00E5F038FCE433CB8DF0A42CFCE5F03BF806
:1000BE00EE8AF0A42CFCE5F038F8E433CF89F0A4F6
:1000CE002CFCE5F038CF3400CE89F0A42FFFE5F0FC
:1000DE003EFEE433C98DF0A42EFEE5F039CD8AF054
:1000EE00A42FFFE5F03EFEE43DFD33D0E0FB5007CC
:1000FE000BBB000F020268EC2CFCEF33FFEE33FE5D
:06010E00ED33FD0202408A
:10011400020268EC5D046005E85904700302025EA3
:10012400120229580460F6EC4860F2EC7004FDFEFB
:10013400FF22C860DB2481C85009C39860025006BE
:100144000202659850CAF582E9294B4A7005AB82D0
:1001540002025475F0007C1A7880C3EF9BEE9AED8E
:1001640099400DC3EF9BFFEE9AFEED99FDE842F036
:10017400DC23ACF0D0E0FFD0E0FED0E0FDAB822089
:10018400E7101BEB60BAEC2CFCEF33FFEE33FEED13
:1001940033FD020240E803F830E705C0F075F000D3
:1001A400EF2FFFEE33FEED33FD40B830E7C280AAF7
:1001B40075F020800E75F010800575F0087D007EC6
:1001C400007F003392D530D5031202EDEC3340109A
:1001D400EF33FFEE33FEED33FDEC33FCD5F0ED22CF
:0E01E400E5F0247EA2D513CC92E7CDCEFF220B
:1001F200EDD2E7CD33EC3392D524814006E4FFFE05
:10020200FDFC22FCE4CFCECDCC24E0501174FF8063
:10021200EDC3CC13CCCD13CDCE13CECF13CF047000
:07022200F030D5DE0202ED11
:10022900E9D2E7C933E833F892D5EDD2E7CD33EC1B
:0702390033FC5002B2D52294
:10024000EC30E7100FBF000C0EBE00080DBD00041F
:100250000BEB6014A2D5EB13FCED92E7FD2274FFCB
:10026000FCFDFEFF22E480F8A2D574FF13FC7D8024
:03027000E480EF38
:1003070002074EE493A3F8E493A34003F68001F2B7
:1003170008DFF48029E493A3F85407240CC8C333F7
:10032700C4540F4420C8834004F456800146F6DFC6
:10033700E4800B0102040810204080900705E47E4A
:10034700019360BCA3FF543F30E509541FFEE493BB
:10035700A360010ECF54C025E060A840B8E493A382
:10036700FAE493A3F8E493A3C8C582C8CAC583CAAD
:10037700F0A3C8C582C8CAC583CADFE9DEE780BE65
:01072A0000CE
:10027300BB010689828A83E0225002E722BBFE0289
:09028300E32289828A83E49322BC
:10028C00BB010CE58229F582E5833AF583E0225027
:10029C0006E92582F8E622BBFE06E92582F8E22271
:0D02AC00E58229F582E5833AF583E493228B
:1002B900BB010689828A83F0225002F722BBFE0124
:0202C900F3221E
:1002CB00F8BB010DE58229F582E5833AF583E8F069
:1002DB00225006E92582C8F622BBFE05E92582C815
:0202EB00F222FD
:0E02ED00C3E49FFFE49EFEE49DFDE49CFC2222
:00000001FF
