:03000000020902F0
:0C090200787FE4F6D8FD758132020949C7
:100BB80002170000C101010F01C180040B000000F1
:010BC800002C
:10098E00E51170757511017F43120B34AC07E4123B
:10099E0002E77BA17AA079A0783C12015E8F168EB9
:1009AE00158D148C1330003AAB1CAA1BA91AA8196A
:1009BE00120264402DC2007F7F7E967D987C00AB34
:1009CE000EAA0DA90CA80B1204F8602DE50E240139
:1009DE00F50EE4350DF50DE4350CF50CE4350BF59F
:1009EE000B22AF16AE15AD14AC13AB1CAA1BA91A75
:0A09FE00A8191202645002D2002270
:10075F00E50A600302084E750A01120C39E51F64A1
:10076F00287039F512E50F64027024FFFE7D207C9E
:10077F0041AB1CAA1BA91AA81912015E12031B8FE9
:10078F00107B007A007910752E08E4FD120A08E537
:10079F000F64037004750F0122050F22E50FFB7A1A
:1007AF000064037011E51F6424700BF512F50EF54C
:1007BF000DF50CF50B22EB64024A7038E51F641837
:1007CF007032F512FFFE7DA07C40AB1CAA1BA91A4C
:1007DF00A8191202646013AF1CAE1BAD1AAC19E45A
:1007EF00FBFAF9783F12006D803AE4F51CF51BF522
:1007FF001AF51922E50F6402703FE51F6414703972
:10080F00F512FFFEFDFCAB1CAA1BA91AA8191202B8
:10081F0064601AAF1CAE1BAD1AAC19E4FBFAF97881
:10082F003F1200698F1C8E1B8D1A8C1922E4F51C48
:10083F00F51B751AA075194022E51F6002051222DB
:10050900752A01E509600302075E750901AF0FEF5E
:1005190064016005EF6402700C7523FF7524FF7593
:1005290025FF7526FFE50F24FE606514700302069A
:100539000B2402600302075E7522C1AF16AE15AD2A
:1005490014AC1312031BEF75F00A84E5F0900C1A32
:1005590093547FF527E4FFFE7D207C41AB16AA1555
:10056900A914A81312015E12031B7C007D0A120351
:10057900C7741A2DF582740C3CF583E493F528E4CD
:10058900FFFE7DC87C42AB16AA15A914A813805694
:1005990075228CAF1CAE1BAD1AAC1912031BEF757B
:1005A900F00A84E5F0900C1A93547FF527E4FFFED6
:1005B9007D207C41AB1CAA1BA91AA81912015E1245
:1005C900031B7C007D0A1203C7741A2DF582740C73
:1005D9003CF583E493F528E4FFFE7DC87C42AB1C1F
:1005E900AA1BA91AA81912015E12031B7C007D0A15
:1005F9001203C7741A2DF582740C3CF583E493F544
:1006090029227522C87B407A42790F7800AF0EAE55
:100619000DAD0CAC0B120458E47B0AFAF9F812047C
:1006290058741A2BF582740C3AF583E493F52C7BF4
:10063900A07A8679017800AF0EAE0DAD0CAC0B1225
:100649000458E47B0AFAF9F8120458741A2BF58253
:10065900740C3AF583E493F52DE47B107A27F9F8C5
:10066900AF0EAE0DAD0CAC0B120458E47B0AFAF9CF
:10067900F8120458741A2BF582740C3AF583E49332
:10068900F52EE47BE87A03F9F8AF0EAE0DAD0CACAC
:100699000B120458E47B0AFAF9F8120458741A2B5D
:1006A900F582740C3AF583E493F52FE47B64FAF947
:1006B900F8AF0EAE0DAD0CAC0B120458E47B0AFA80
:1006C900F9F8120458741A2BF582740C3AF583E47C
:1006D90093F530E47B0AFAF9F8AF0EAE0DAD0CAC28
:1006E9000B120458E47B0AFAF9F8120458741A2B0D
:1006F900F582740C3AF583E493F531E47B0AFAF94F
:10070900F8AF0EAE0DAD0CAC0B120458741A2BF5E4
:1007190082740C3AF583E493F532742B252AF8E6B2
:10072900FF900C1AE493FEEFB5060A76FF052AE559
:100739002A640770E5752A01C3E52A940874809430
:10074900805012742B252AF8E6FF7422252AF8A670
:0507590007052A80E302
:01075E002278
:100AC7007BFFE51D7031751D013001011BE50E54DB
:100AD70001FFE4FEFCEF60035303FDC3E51294033B
:100AE7007480948040035303FBEB650860098B080F
:070AF700AD037F80120C54D7
:010AFE0022D5
:100A4C00120C47120BF47F43120B347B007A0079A3
:100A5C0010752E08E4FD120003AC10E41202E77BC3
:100A6C00CD7ACC79CC783D12015E8F1C8E1B8D1A01
:100A7C008C1912098E12075F120509120AC780F22F
:0300630002084F41
:10084F00C0E0C0F0C083C082C0D075D000C000C06F
:10085F0001C002C003C004C005C006C007120B646C
:10086F000511C3E511940A7480948040037511003B
:10087F00050AC3E50A940A748094804003750A0040
:10088F000509C3E5099496748094804003750900A7
:10089F00051DC3E51D940A748094804003751D00E7
:1008AF00AF1CAE1BAD1AAC19AB16AA15A914A81321
:1008BF00120264501B0518E51870020517C39488BF
:1008CF00E51794134012751700751800D2018008B0
:1008DF00751700751800C201D007D006D005D004D7
:1008EF00D003D002D001D000D0D0D082D083D0F0AE
:0308FF00D0E03214
:0D0C4700538EFB75D71875D6FC438E102216
:0D0C5400E5A0541F4FF5A08D8053A01F2276
:100BF400E4FD7FA0120C547DFF7F80120C5443AFA0
:040C040004D2AF2245
:04005700D2A07F05AF
:08005B0000AE071FEE70F92250
:0F0C2A00D2A1120057C2A17F0512005BC2A02207
:0C0C6100C2A1120057D2A17F0502005B67
:020AFF00AD0741
:100B0100E4FCECC39408748094805024C2A07F0557
:100B110012005BED30E704D2A18002C2A17F051271
:100B2100005BD2A0ED25E0FD7F0512005B0C80D2B9
:020B3100C2A060
:010B3300229F
:100B9200E4FCECC39408748094805017120057ED63
:100BA20025E0FD30A103430501C2A07F0512005BD1
:050BB2000C80DFAF051F
:010BB700221B
:100C0800120057A2A1E433FDC2A07F0512005BAF1A
:010C180005D6
:010C190022B8
:100BDD00C2A0A20292A17F0512005B120057C2A013
:070BED00D2A17F0502005BAD
:060BC900011F00011E00E7
:100A8C007FFF75B0F075C0FF20C4027F7020C202DA
:100A9C007FB020B5027FD020B4027FE075B00FE4A8
:100AAC00F5C020B30343070720B20343070B20B163
:0A0ABC000343070D20B00343070EAB
:010AC600220D
:0D0C3900120A8CEFF4FF651E5FF51F8F1E81
:010C4600228B
:100C1A00C0F9A4B0999282F880908883C6A1868E82
:0D0BCF000822FFFFFFFFFFFFFFFF012100D5
:100B6400E4FD7FC0120C5474222521F8E6FD7FE0D9
:100B7400120C54AF21A8077401088002C333D8FCB7
:0D0B8400FD7FC0120C54E521045407F5213B
:010B91002241
:020B34008F2A06
:100B3600120C2A7F90120AFF120C08AF2A120AFF23
:100B4600120C08120C2A7F91120AFF120C08120BC3
:0D0B5600928F2BD202120BDD120C61AF2B1F
:010B6300226F
:080C6D0000AE071FEE70F92232
:100A08008B2A8A2B892C8D2D120C2A7FA0120AFF83
:100A1800120C08AF2D120AFF120C08AF2E152EEF7C
:100A2800601FAB2A052CE52CAA2B7002052B14F9A4
:100A380012039CFF120AFF120C087FC8120C6D806B
:040A4800DA020C6161
:100003008B2A8A2B892C8D2D120C2A7FA0120AFF92
:10001300120C08AF2D120AFF120C08120C2A7FA132
:10002300120AFF120C08AF2E152EEF6024120B924A
:10003300AB2A052CE52CAA2B7002052B14F9EF1221
:1000430003B5E52E6004C2028002D202120BDD80EA
:04005300D5020C6165
:10006600020387E86480F8E933E83360110460F03E
:10007600ED33EC337009E8FCE9FDEAFEEBFF220400
:1000860060DED3EB9FEA9EE99DE8C2E78CF0C2F7FB
:1000960095F0400CE8CCF8E9CDF9EACEFAEBCFFBC7
:1000A60012035285D0F05804700320D5B3E80470CB
:1000B600075002B2D502039192D5EC0460F7E4CC66
:1000C600C0E0C398F8603B94186008400DD0E0FB90
:1000D600020369E4FBFAC9FC8028E830E406E4C9B7
:1000E600FBE4CAFCE830E305E4C9CACBFCE85407E4
:1000F6006010F8C3E913F9EA13FAEB13FBEC13FCEF
:10010600D8F130F52FC3E49CFCEF9BFFEE9AFEED91
:1001160099FDD0E0FBEF4E4D4C701222DB0302033B
:100126008EEC2CFCEF33FFEE33FEED33FDED30E7C6
:10013600EB020369EF2BFFEE3AFEED39FDD0E0FB53
:1001460050130BBB0003020391ED13FDEE13FEEFFC
:0801560013FFEC13FC02036926
:10015E00EC4D6011E8497017ED33EC3304600DE49B
:10016E00FCFFFEFD22E933E8330470F80203871228
:10017E00035258046009E4CC248150062850090229
:10018E00039128400302038EC0E0EB4A7044B9800D
:10019E0006D0E0FB02037DEF4E701CBD8008EBFF26
:1001AE00EAFEE9FD80EBE98DF0A4FEE5F0020247E0
:1001BE00E9CDF9EAFEEBFFEF89F0A4FCE5F0CE897C
:1001CE00F0A42EFFE435F0CD89F0A42DFEE435F039
:1001DE008067EF4E7005BD80D780C3EF8BF0A4AC67
:1001EE00F0EE8BF0A42CFCE435F0F8EF8AF0A42CA2
:1001FE00E5F038FCE433CB8DF0A42CFCE5F03BF8B5
:10020E00EE8AF0A42CFCE5F038F8E433CF89F0A4A4
:10021E002CFCE5F038CF3400CE89F0A42FFFE5F0AA
:10022E003EFEE433C98DF0A42EFEE5F039CD8AF002
:10023E00A42FFFE5F03EFEE43DFD33D0E0FB50077A
:10024E000BBB000F020391EC2CFCEF33FFEE33FEE1
:06025E00ED33FD0203690F
:1002640074F8CC6480CCC86480C8F58204604FC341
:10027400EB9FF5F0EA9E42F0E99D42F0E89C45F0E0
:10028400603C501DE5825FFFE582D313CB5BCBF46A
:100294002B5582FB50280ABA002409B90020088093
:1002A4001DE5825BFBE582D313CF5FCFF4C3132F2D
:1002B4005582FF50090EBE00050DBD00010CC3EBB5
:1002C4009FF5F0EA9E42F0E99D42F0E89C45F0601B
:0902D40007CC4820E701B3EC223D
:1002DD0075F020800E75F010800575F0087D007E9C
:1002ED00007F003392D530D5031204EAEC33401071
:1002FD00EF33FFEE33FEED33FDEC33FCD5F0ED22A5
:0E030D00E5F0247EA2D513CC92E7CDCEFF22E0
:10031B00EDD2E7CD33EC3392D524814006E4FFFEDA
:10032B00FDFC22FCE4CFCECDCC24E0501174FF8039
:10033B00EDC3CC13CCCD13CDCE13CECF13CF0470D6
:07034B00F030D5DE0204EAE8
:10035200E9D2E7C933E833F892D5EDD2E7CD33ECF1
:0703620033FC5002B2D5226A
:10036900EC30E7100FBF000C0EBE00080DBD0004F5
:100379000BEB6014A2D5EB13FCED92E7FD2274FFA1
:10038900FCFDFEFF22E480F8A2D574FF13FC7D80FA
:03039900E480EF0E
:10090E00020A4CE493A3F8E493A34003F68001F2A9
:10091E0008DFF48029E493A3F85407240CC8C333EA
:10092E00C4540F4420C8834004F456800146F6DFB9
:10093E00E4800B0102040810204080900BB8E47E86
:10094E00019360BCA3FF543F30E509541FFEE493AE
:10095E00A360010ECF54C025E060A840B8E493A375
:10096E00FAE493A3F8E493A3C8C582C8CAC583CAA0
:10097E00F0A3C8C582C8CAC583CADFE9DEE780BE58
:010BDC000018
:10039C00BB010689828A83E0225002E722BBFE025F
:0903AC00E32289828A83E4932292
:1003B500BB010689828A83F0225002F722BBFE0127
:0203C500F32221
:1003C700BC000BBE0029EF8DF084FFADF022E4CC1A
:1003D700F875F008EF2FFFEE33FEEC33FCEE9DECE3
:1003E700984005FCEE9DFE0FD5F0E9E4CEFD22ED29
:1003F700F8F5F0EE8420D21CFEADF075F008EF2F73
:10040700FFED33FD4007985006D5F0F222C398FD63
:050417000FD5F0EA2200
:10041C0075F008758200EF2FFFEE33FECD33CDCC97
:10042C0033CCC58233C5829BED9AEC99E58298401A
:10043C000CF582EE9BFEED9AFDEC99FC0FD5F0D6F7
:10044C00E4CEFBE4CDFAE4CCF9A88222B800C1B921
:10045C000059BA002DEC8BF084CFCECDFCE5F0CB5F
:10046C00F97818EF2FFFEE33FEED33FDEC33FCEB98
:10047C0033FB10D703994004EB99FB0FD8E5E4F953
:10048C00FA227818EF2FFFEE33FEED33FDEC33FC40
:10049C00C933C910D7059BE99A4007EC9BFCE99A34
:1004AC00F90FD8E0E4C9FAE4CCFB2275F010EF2F79
:1004BC00FFEE33FEED33FDCC33CCC833C810D70779
:1004CC009BEC9AE899400AED9BFDEC9AFCE899F8B4
:0E04DC000FD5F0DAE4CDFBE4CCFAE4C8F92247
:0E04EA00C3E49FFFE49EFEE49DFDE49CFC2223
:1004F800EB9FF5F0EA9E42F0E99D42F0E89C45F05A
:0105080022D0
:00000001FF
