:03000000020BE60A
:0C0BE600787FE4F6D8FD758121020C2D0B
:100D7000C106C1024100E100C1044100D3FF4100AE
:100D8000CA01C1054300CF1303054100CB1E41003A
:100D900001004200CD00004400D4000000004400E7
:100DA000DC000000004100E4004100E500410000DB
:010DB0000042
:101129009000D8E0700A04F0FB7A0079CF120F0919
:011139002293
:100E11009000CDE0FEA3E0FFC394C8EE9400403003
:100E2100D3EF94D0EE94075027E02438FD9000CD05
:100E3100E034FFFCE41203097B617A0B7936783DDB
:100E410012015EE4FBFA7920784112006D0203423F
:020E51007FAA76
:010E5300227C
:100C72009000D2E06003020CF904F0A205B3501216
:100C82007F41120E91C3EF9480748094804003D20E
:100C920005223005627F41120E91C3EF9480748069
:100CA20094805053C205D2029000CAE09000DBF05B
:100CB2009000CA7406F0120ECD120342900001E0B9
:100CC20025E02402F582E43400F583EFF0120E11E0
:100CD200900001E025E02403F582E43400F583EF7F
:100CE200F0900001E004F09000CFE09000C8F09096
:080CF20000D0E09000C9F022DF
:1007AA00E49000E7F0A3F0A3F0A312042C000000E9
:1007BA00009000EE12042C0000000020020302093F
:1007CA005FA200B3400302095FD200E49000E6F0A2
:1007DA00900001E0FF9000E6E0FEC39F400302089C
:1007EA00B2EE25E02403F582E43400F583E064AA3E
:1007FA0070099000E9E004F00208A99000EAE0F824
:10080A00A3E0F9A3E0FAA3E0FB9000E6E025E024E8
:10081A0002F582E43400F583E0FFE4FCFDFEEB2FF1
:10082A00FFEE3AFEED39FDEC38FC9000EA120420A6
:10083A009000E6E025E02402F582E43400F583E046
:10084A00FF9000E7E0FEEFD39E4002EFF09000EE4B
:10085A00E0F8A3E0F9A3E0FAA3E0FB9000E6E025C4
:10086A00E02403F582E43400F583E0FFE4FCFDFEB6
:10087A00EB2FFFEE3AFEED39FDEC38FC9000EE125C
:10088A0004209000E6E025E02403F582E43400F534
:10089A0083E0FF9000E8E0FEEFD39E4002EFF09085
:1008AA0000E6E004F00207DA9000E9E0FF900001B8
:1008BA00E0C39FFDE49400FC4D607BEC120309C089
:1008CA0004C005C006C0079000EAE0FCA3E0FDA34F
:1008DA00E0FEA3E0FFE4120304D003D002D001D06B
:1008EA00001202679000D41204209000E7E0900002
:1008FA00E4F09000E9E0FF900001E0C39FFDE4947A
:10090A0000FC120309C004C005C006C0079000EE2F
:10091A00E0FCA3E0FDA3E0FEA3E0FFE4120304D0A1
:10092A0003D002D001D0001202679000DC1204202A
:10093A009000E8E0801A9000D412042C0000000015
:10094A00E49000E4F09000DC12042C00000000E4C3
:0F095A009000E5F022A202B35005300002C20067
:01096900226B
:100B1B009000D9E06003020BE504F01210C59000C1
:100B2B00FCE0FF7E00648870269000CAE024FE245F
:100B3B00FD500E601324046003020BE59000CA8085
:100B4B00329000CA7405F0229000CA7401F0229012
:100B5B0000CAE0FD7C006402600AED64036005EDF1
:100B6B0064047017EF64844E7011ED64044C9000B4
:100B7B00CA70047402F022E004F022ED64054C709C
:100B8B000E9000FCE0644470069000CBE004F09003
:100B9B0000CAE06405700E9000FCE064487006909B
:100BAB0000CBE014F09000CAE06401701E9000FBD3
:100BBB00E064487016900000E004F0E0C394C87441
:100BCB00809480400BE4F0D2018005E4900000F0AB
:0A0BDB00300107C201E4900001F0B0
:010BE50022ED
:10045D009000E3E060030207A904F09000CAE024D5
:10046D00FE606314700302057F14700302063914D5
:10047D0070030206CF147003020702240560030205
:10048D0007A99000CFE0FFC4540F90114B9390003B
:10049D00F3F0EF540F90114B939000F4F0A374BF51
:1004AD00F09000D0E0FFC4540F90114B939000F6E4
:1004BD00F0EF540F90114B939000F7F0A374BFF031
:0604CD009000D10206BC04
:1004D300901157E4939000F3F0900001E0702B909B
:1004E30000E604F09000E6E0FFC394087480948073
:1004F30040030207A974F32FF582E43400F58374F3
:10050300FFF09000E6E004F080DA9000F474FFF06E
:100513009000E4E0FF75F00A8475F00A84E5F0903A
:10052300114B939000F5F0EF75F00A84E5F090110C
:100533004B939000F6F0A374BFF09000D4E0FCA3BB
:10054300E0FDA3E0FEA3E0FF120342EF75F00A848F
:1005530075F00A84E5F090114B939000F8F0EF7575
:10056300F00A84E5F090114B93547F9000F9F0E486
:09057300FFFE7D207C419000D4C4
:03057C000206254F
:10057F009000F37489F0900001E0702B9000E60476
:10058F00F09000E6E0FFC39408748094804003026B
:10059F0007A974F32FF582E43400F58374FFF0900C
:1005AF0000E6E004F080DA9000F474FFF09000E5CC
:1005BF00E0FF75F00A8475F00A84E5F090114B9313
:1005CF009000F5F0EF75F00A84E5F090114B9390E1
:1005DF0000F6F0A374BFF09000DCE0FCA3E0FDA3F5
:1005EF00E0FEA3E0FF120342EF75F00A8475F00AF4
:1005FF0084E5F090114B939000F8F0EF75F00A84BA
:10060F00E5F090114B93547F9000F9F0E4FFFE7DDD
:10061F00207C419000DCE0F8A3E0F9A3E0FAA3E02E
:07062F00FB12015E12034201
:030636000206F8C1
:1006390090115AE4939000F3F0900001E0FF75F0F7
:100649000A8475F00A84E5F090114B939000F4F058
:10065900EF75F00A84E5F090114B939000F5F09056
:100669000001E0702C9000E67403F09000E6E0FFD2
:10067900C394087480948040030207A974F32FF58A
:1006890082E43400F58374FFF09000E6E004F08022
:10069900DA9000C8E0FFC4540F90114B939000F614
:1006A900F0EF540F90114B939000F7F0A374BFF043
:1006B9009000C9E0FFC4540F90114B939000F9F0DA
:0306C900EF540FDC
:1006CC000207A19000F3748CF0A374FFF0A3F0A3C5
:1006DC00F0A3F0A3F09000CBE0FF75F00A8475F066
:1006EC000A84E5F090114B939000F9F0EF75F00A45
:1006FC0084E5F00207A1901159E4939000F3F0A364
:10070C0074FFF0A3F0900001E0FF25E02400F582D7
:10071C00E43400F583E0FE75F00A8475F00A84E594
:10072C00F090114B939000F6F0EE75F00A84E5F022
:10073C0090114B939000F7F0A374BFF0EF25E024D9
:10074C0001F582E43400F583E064AA90000160298D
:10075C00E025E02401F582E43400F583E0FF75F038
:10076C000A8475F00A84E5F090114B939000F9F02F
:10077C00EF75F00A84E5F0801CE025E02401F58299
:10078C00E43400F583E0FFC4540F90114B939000B8
:0E079C00F9F0EF540F90114B939000FAF022F9
:100CFA009000DAE0706F04F09000CAE024FE24FD50
:100D0A005011601714601C2405701E9000D374FEE5
:100D1A00F080169000D374FDF0800E9000D374FB1F
:100D2A00F080069000D374FFF09000D3E030040501
:100D3A0054F7F08001F0900001E025E02403F582E9
:100D4A00E43400F583E064AA70079000D3E054EF1E
:100D5A00F03007079000D3E054DFF09000D3E0FDB5
:060D6A007F8012115B22E4
:1010DB000000750823750933750AB6D50AFDD509C5
:0410EB00FAD508F733
:0110EF0022DE
:10001E00120ECD120E111210DB12110412113A1221
:10002E0011791200037B017A0079CF120DC9120BE0
:10003E001B12045D120CFA121129A202B350031204
:10004E000C723006051207AAC2063003E1C2031273
:04005E000ECD80DA69
:03001B0002096A6D
:10096A00C0E0C0F0C083C082C0D075D000C000C053
:10097A0001C002C003C004C005C006C007120F446C
:10098A009000D9E004F0C3940A748094804002E491
:10099A00F09000E3E004F0C394C8748094804002AD
:1009AA00E4F09000D8E004F0C39419748094804075
:1009BA0002E4F09000DAE004F0C3940A74809480B0
:1009CA004002E4F09000D2E004F0C3940A748094E8
:1009DA00804002E4F03002479000E0E004F0E0C317
:1009EA009464748094804037E4F09000E2E004F06C
:1009FA00E0941E748094804026E4F0900001E02583
:100A0A00E02401F582E43400F583E064AA700690DC
:100A1A000001E014F0C2029000DBE09000CAF0D0BE
:100A2A0007D006D005D004D003D002D001D000D020
:0A0A3A00D0D082D083D0F0D0E0329B
:03006300020A444A
:100A4400C0E0C083C082C0D075D000C005C006C05D
:100A540007900001E0FF25E02400F582E43400F56E
:100A640083E0FE9000CBE0FDEED39D4016EF6013D3
:100A7400A3E004F0E0940A74809480400DE4F0B2A2
:100A8400048007EED39D5002C2049000E1E004F01C
:100A9400C3946474809480406FE4F0AF8CEFFFAD36
:100AA4008AED9000CDCFF0A3EFF0758A00758C002D
:100AB400D206D203900001E09402748094804048EE
:100AC400E0FF25E024FEF582E434FFF583E0FEEF49
:100AD40025E02400F582E43400F583E0D39E40262B
:100AE400900001E025E024FFF582E434FFF583E083
:100AF400FEEF25E02401F582E43400F583E0D39E83
:100B04004004D2078002C207D007D006D005D0D057
:070B1400D082D083D0E03253
:10110400538E7F5389F0438905E4F58AF58CC28DAB
:03111400D28C2258
:10113A00538EBF53890F758B18758DFCC28FD28E53
:01114A002282
:0D117900538EFB75D7F075D6D8438E10222B
:0F115B00E5A0541F4FF5A0AF058F8053A01F22B2
:10000300E4FD7FA012115B7DFF7F8012115B43AF84
:0700130004C2BB75A888229E
:04118600D2A07F056F
:08118A0000AE071FEE70F92210
:0F116A00D2A1121186C2A17F0512118AC2A02242
:0C119200C2A1121186D2A17F0502118AB1
:020F7D00AD07BE
:100F7F00E4FCECC39408748094805024C2A07F05D5
:100F8F0012118AED30E704D2A18002C2A17F0512AF
:100F9F00118AD2A0ED25E0FD7F0512118A0C80D2B7
:020FAF00C2A0DE
:010FB100221D
:10102B00E4FCECC39408748094805017121186ED85
:10103B0025E0FD30A1034401FDC2A07F0512118AFA
:05104B000C80DFAF0581
:01105000227D
:10111700121186A2A1E433FDC2A07F0512118AAF86
:0111270005C2
:0111280022A4
:1010AE00C2A0A20892A17F0512118A121186C2A0B7
:0710BE00D2A17F0502118A97
:041074007F057E0076
:10107800EF1FAA0670011E4A600FE4FDEDC3940C31
:091088007480948050EA0D80F39D
:01109100223C
:020FDD00A90762
:100FDF00E4FBEBC39408748094805012C294E9131D
:100FEF009294121074D294E9C313F90B80E47F0525
:050FFF007E00021078E5
:10105100E4FBEBC39408748094805014C294ECC3F5
:1010610013FCD2943094034480FC1210740B80E280
:02107100AF04CA
:01107300225A
:10100400C208D2947F0C7E00121078C2947F507E66
:1010140000121078D2947F0A7E00121078A2949263
:0610240008121074A2087E
:01102A0022A3
:10114B00C0F9A4B0999282F880908883C6A1868E4C
:0F0DB1004800F301000000000000004100F200C4
:100F4400E4FD7FC012115B9000F2E024F3F582E42B
:100F54003400F583E0FD7FE012115B9000F2E0FFC6
:100F6400F87401088002C333D8FCFD7FC012115B02
:080F74009000F2E0045407F0C4
:010F7C002252
:080DC0004100FC004100FB00B2
:100FB2007FFFC2B2C2B3D2C2D2C420C4027F7020A9
:100FC200C2027FB0D2B2D2B3C2C2C2C420B304EF53
:0A0FD2004407FF20B204EF440BFFB8
:010FDC0022F2
:1010C500120FB2EFF4FD9000FBE06D5DA3F0AF05EC
:0510D5009000FBEFF0AC
:0110DA0022F3
:10109200E4FEEEC3940874809480500FC297EF135D
:0B10A20092A3EFC313FFD2970E80E76C
:0110AD002220
:1010F000C29300C29700D29300121092AF05121053
:0411000092C29322E2
:100E5400E4FDC29300C29700D29300121092E4FF03
:100E6400EFC39408748094805011C297EDC313FDAE
:100E740030A3034480FDD2970F80E5C29300C2974C
:0C0E840000D29700C2A300D2A300AF056B
:010E9000223F
:0B0DC9009000E6EBF0A3EAF0A3E9F0D5
:100DD400E4FD7F8E1210F0E4FCECC3940374809461
:100DE400805023EC25E0FFC374849FFF9000E6E06D
:100DF400FBA3E0FAA3E0F98C827583001203C3FD20
:0D0E04001210F00C80D37D807F8E0210F064
:0B0F09009000E6EBF0A3EAF0A3E9F093
:100F1400E4FCECC39403748094805023EC25E0FF3C
:100F2400C374859FFF120E549000E6E0FBA3E0FA21
:0F0F3400A3E0F98C82758300EF1203F00C80D3D9
:010F4300228B
:050E91009000E6EFF007
:100E960012116A7F90120F7D1211179000E6E0FF83
:100EA600120F7D12111712116A7F91120F7D121106
:100EB6001712102B9000E7EFF0D2081210AE1211A5
:060EC600929000E7E0FF3E
:010ECC002203
:100ECD001210047FCC120FDD7F44120FDD121004BF
:100EDD007FCC120FDD7FBE120FDD1210519000E698
:100EED00EFF0121051EFFE9000E6E0FDEEFCEC127B
:0C0EFD000309E4FBFA79807841020267E7
:100066000203AEE86480F8E933E83360110460F017
:10007600ED33EC337009E8FCE9FDEAFEEBFF220400
:1000860060DED3EB9FEA9EE99DE8C2E78CF0C2F7FB
:1000960095F0400CE8CCF8E9CDF9EACEFAEBCFFBC7
:1000A60012037985D0F05804700320D5B3E80470A4
:1000B600075002B2D50203B892D5EC0460F7E4CC3F
:1000C600C0E0C398F8603B94186008400DD0E0FB90
:1000D600020390E4FBFAC9FC8028E830E406E4C990
:1000E600FBE4CAFCE830E305E4C9CACBFCE85407E4
:1000F6006010F8C3E913F9EA13FAEB13FBEC13FCEF
:10010600D8F130F52FC3E49CFCEF9BFFEE9AFEED91
:1001160099FDD0E0FBEF4E4D4C701222DB0302033B
:10012600B5EC2CFCEF33FFEE33FEED33FDED30E79F
:10013600EB020390EF2BFFEE3AFEED39FDD0E0FB2C
:1001460050130BBB00030203B8ED13FDEE13FEEFD5
:0801560013FFEC13FC020390FF
:10015E00EC4D6011E8497017ED33EC3304600DE49B
:10016E00FCFFFEFD22E933E8330470F80203AE1201
:10017E00037958046009E4CC248150062850090202
:10018E0003B82840030203B5C0E0EB4A7044B980BF
:10019E0006D0E0FB0203A4EF4E701CBD8008EBFFFF
:1001AE00EAFEE9FD80EBE98DF0A4FEE5F0020247E0
:1001BE00E9CDF9EAFEEBFFEF89F0A4FCE5F0CE897C
:1001CE00F0A42EFFE435F0CD89F0A42DFEE435F039
:1001DE008067EF4E7005BD80D780C3EF8BF0A4AC67
:1001EE00F0EE8BF0A42CFCE435F0F8EF8AF0A42CA2
:1001FE00E5F038FCE433CB8DF0A42CFCE5F03BF8B5
:10020E00EE8AF0A42CFCE5F038F8E433CF89F0A4A4
:10021E002CFCE5F038CF3400CE89F0A42FFFE5F0AA
:10022E003EFEE433C98DF0A42EFEE5F039CD8AF002
:10023E00A42FFFE5F03EFEE43DFD33D0E0FB50077A
:10024E000BBB000F0203B8EC2CFCEF33FFEE33FEBA
:06025E00ED33FD020390E8
:100264000203B8EC5D046005E8590470030203AEB0
:10027400120379580460F6EC4860F2EC7004FDFE59
:10028400FF22C860DB2481C85009C398600250066D
:100294000203B59850CAF582E9294B4A7005AB822E
:1002A4000203A475F0007C1A7880C3EF9BEE9AEDEC
:1002B40099400DC3EF9BFFEE9AFEED99FDE842F0E5
:1002C400DC23ACF0D0E0FFD0E0FED0E0FDAB822038
:1002D400E7101BEB60BAEC2CFCEF33FFEE33FEEDC2
:1002E40033FD020390E803F830E705C0F075F00031
:1002F400EF2FFFEE33FEED33FD40B830E7C280AAA6
:1003040075F020800E75F010800575F0087D007E74
:10031400007F003392D530D503120412EC33401021
:10032400EF33FFEE33FEED33FDEC33FCD5F0ED227D
:0E033400E5F0247EA2D513CC92E7CDCEFF22B9
:10034200EDD2E7CD33EC3392D524814006E4FFFEB3
:10035200FDFC22FCE4CFCECDCC24E0501174FF8012
:10036200EDC3CC13CCCD13CDCE13CECF13CF0470AF
:07037200F030D5DE02041299
:10037900E9D2E7C933E833F892D5EDD2E7CD33ECCA
:0703890033FC5002B2D52243
:10039000EC30E7100FBF000C0EBE00080DBD0004CE
:1003A0000BEB6014A2D5EB13FCED92E7FD2274FF7A
:1003B000FCFDFEFF22E480F8A2D574FF13FC7D80D3
:0303C000E480EFE7
:100BF20002001EE493A3F8E493A34003F68001F2FB
:100C020008DFF48029E493A3F85407240CC8C33303
:100C1200C4540F4420C8834004F456800146F6DFD2
:100C2200E4800B0102040810204080900D70E47EE5
:100C3200019360BCA3FF543F30E509541FFEE493C7
:100C4200A360010ECF54C025E060A840B8E493A38E
:100C5200FAE493A3F8E493A3C8C582C8CAC583CAB9
:100C6200F0A3C8C582C8CAC583CADFE9DEE780BE71
:010DC800002A
:1003C300BB010CE58229F582E5833AF583E02250EF
:1003D30006E92582F8E622BBFE06E92582F8E22239
:0D03E300E58229F582E5833AF583E4932253
:1003F000F8BB010DE58229F582E5833AF583E8F043
:10040000225006E92582C8F622BBFE05E92582C8EE
:02041000F222D6
:0E041200C3E49FFFE49EFEE49DFDE49CFC22FB
:0C042000ECF0A3EDF0A3EEF0A3EFF0224F
:10042C00A8828583F0D083D0821204431204431235
:10043C000443120443E473E493A3C583C5F0C5835A
:10044C00C8C582C8F0A3C583C5F0C583C8C582C81A
:01045C00227D
:00000001FF
