:0300000002060FE6
:0C060F00787FE4F6D8FD758129020656BC
:0C083A00040D40000000C181C182C18398
:10071C00E50A7037750A017F43120793AC07E412A0
:10072C0001A77BA17AA079A0783C12001E8F178EAE
:10073C00168D158C143000088F108E0F8D0E8C0DAD
:0C074C00AF10AE0FAD0EAC0D1206DF2298
:10075800E513703675130112086BE51FB40803B270
:100768000122E51FB40415A200B35003D20022C22F
:1007780000E4F510F50FF50E750D4022E51FB402E3
:0B07880002B202E51FB40102B203221E
:10038D00E51260030204D875120130016E7522C1A9
:10039D007523FF7524FF7525FF7526FFAF17AE1664
:1003AD00AD15AC141201DBEF75F00A84E5F0900881
:1003BD00C893547FF527E4FFFE7D207C41AB17AA3F
:1003CD0016A915A81412001E1201DBEF75F00A8490
:1003DD00E5F09008C893F528E4FFFE7DC87C42AB9C
:1003ED0017AA16A915A81412001E1201DBEF75F03D
:1003FD000A84E5F09008C893F529229008D7E49374
:10040D00F5227523FFAE08AF09E4FCFD7BA07A86CB
:10041D007901F812069BEC4D4E4F600EEF75F00A08
:10042D0084E5F09008C893FF80027FFF8F24AE080B
:10043D00AF097C277D1012025CEF4E600EEF75F058
:10044D000A84E5F09008C893FF80027FFF8F25AEE8
:10045D0008AF097C037DE812025CEF4E600EEF756C
:10046D00F00A84E5F09008C893FF80027FFF8F2685
:10047D00AE08AF097C007D6412025CEF4E600EEF9A
:10048D0075F00A84E5F09008C893FF80027FFF8F16
:10049D0027AE08AF097C007D0A12025CEF4E600E9C
:1004AD00EF75F00A84E5F09008C893FF80027FFF96
:1004BD008F28E5094508600FE50975F00A84E5F018
:0C04CD009008C893FF80027FFF8F292257
:100582007518FFE511600302060E75110130027540
:100592003001057518FD80037518FEE4FFFE7DC06D
:1005A2007C3FAB10AA0FA90EA80D1201244014E43F
:1005B200FFFE7D207C40AB10AA0FA90EA80D1201F0
:1005C200244016E4FFFE7D607C40AB10AA0FA90E0A
:1005D200A80D120124600540035318FBC3E50994DA
:1005E200E8E5089403400AE5099488E50894134075
:1005F2000BC3E5099410E508942740035318F7301C
:0C06020000035318EFAD187F801208E7CA
:01060E0022C9
:1000030012087F1208B712089212071C120758121F
:07001300038D12058280F24B
:03001B000204D903
:1004D900C0E0C0F0C083C082C0D075D000C000C0E9
:1004E90001C002C003C004C005C006C0073003052F
:1004F9001207C38007E4FD7FC01208E70513E5135F
:10050900C3940A40037513000512E512C394C84049
:10051900037512000511E511C3940A400375110012
:10052900050AE50AC394644003750A00050CE50C45
:100539007002050BC394F4E50B94014021750B007F
:10054900750C00AF8CEFAD8AF508EDF509758A00D9
:10055900758C00E50925E0F509E50833F508D007AC
:10056900D006D005D004D003D002D001D000D0D01D
:09057900D082D083D0F0D0E03232
:10087F00538E7F5389F0438905E4F58AF58CC28D39
:03088F00D28C22E6
:1008B700538EBF53890F758B18758DFCC28FD28EDF
:0108C700220E
:0408F400D2A07F050A
:0808F80000AE071FEE70F922AB
:0F08D800D2A11208F4C2A17F051208F8C2A02213
:0C090000C2A11208F4D2A17F050208F881
:0207F100AD0752
:1007F300E4FCC2A07F051208F8ED30E704D2A18023
:1008030002C2A17F051208F8D2A0ED25E0FD7F0505
:090813001208F80CBC08DBC2A0BD
:01081C0022B9
:10081D00E4FC1208F4ED25E0FD30A103430501C20F
:0C082D00A07F051208F80CBC08E8AF051D
:01083900229C
:1008A5001208F4A2A1E433FDC2A07F051208F8AF37
:0108B500053D
:0108B600221F
:10085400C2A0A20492A17F051208F81208F4C2A053
:07086400D2A17F050208F894
:0D08E700E5A0541F4FF5A08D8053A01F22E7
:10089200E4FD7FA01208E77DFF7F801208E7D2AB5C
:0308A200D2AF22B0
:10086B00E5B0540FF4FF651DFE5FF51FEFF45EF569
:03087B001E8F1DB0
:01087E002257
:1008C800C0F9A4B0999282F880908883C6A1868ED8
:0D0846000822010000000000000001210058
:1007C300E4FD7FC01208E774222521F8E6FD7FE0EF
:1007D3001208E7AF217401A807088002C333D8FCCD
:0D07E300FD7FC01208E7E521045407F52151
:0107F00022E6
:020793008F18BD
:100795001208D87F901207F11208A5AF181207F1B9
:1007A5001208A51208D87F911207F11208A51208A0
:0D07B5001D8F19D204120854120900AF194B
:0107C2002214
:0806DF008F1B8E1A8D198C1877
:1006E700E4FFFE7D347C42AB1BAA1AA919A8181295
:1006F700001E1201DB8F1C1208D87F901207F1121F
:1007070008A57F401207F11208A5AF1C1207F112C6
:0507170008A502090025
:10001E00EC4D6011E8497017ED33EC3304600DE4DC
:10002E00FCFFFEFD22E933E8330470F802024712AA
:10003E00021258046009E4CC2481500628500902AB
:10004E00025128400302024EC0E0EB4A7044B980D0
:10005E0006D0E0FB02023DEF4E701CBD8008EBFFA8
:10006E00EAFEE9FD80EBE98DF0A4FEE5F002010762
:10007E00E9CDF9EAFEEBFFEF89F0A4FCE5F0CE89BD
:10008E00F0A42EFFE435F0CD89F0A42DFEE435F07A
:10009E008067EF4E7005BD80D780C3EF8BF0A4ACA8
:1000AE00F0EE8BF0A42CFCE435F0F8EF8AF0A42CE3
:1000BE00E5F038FCE433CB8DF0A42CFCE5F03BF8F6
:1000CE00EE8AF0A42CFCE5F038F8E433CF89F0A4E6
:1000DE002CFCE5F038CF3400CE89F0A42FFFE5F0EC
:1000EE003EFEE433C98DF0A42EFEE5F039CD8AF044
:1000FE00A42FFFE5F03EFEE43DFD33D0E0FB5007BC
:10010E000BBB000F020251EC2CFCEF33FFEE33FE63
:06011E00ED33FD02022991
:1001240074F8CC6480CCC86480C8F58204604FC382
:10013400EB9FF5F0EA9E42F0E99D42F0E89C45F021
:10014400603C501DE5825FFFE582D313CB5BCBF4AB
:100154002B5582FB50280ABA002409B900200880D4
:100164001DE5825BFBE582D313CF5FCFF4C3132F6E
:100174005582FF50090EBE00050DBD00010CC3EBF6
:100184009FF5F0EA9E42F0E99D42F0E89C45F0605C
:0901940007CC4820E701B3EC227E
:10019D0075F020800E75F010800575F0087D007EDD
:1001AD00007F003392D530D5031202B1EC334010ED
:1001BD00EF33FFEE33FEED33FDEC33FCD5F0ED22E6
:0E01CD00E5F0247EA2D513CC92E7CDCEFF2222
:1001DB00EDD2E7CD33EC3392D524814006E4FFFE1C
:1001EB00FDFC22FCE4CFCECDCC24E0501174FF807B
:1001FB00EDC3CC13CCCD13CDCE13CECF13CF047018
:07020B00F030D5DE0202B164
:10021200E9D2E7C933E833F892D5EDD2E7CD33EC32
:0702220033FC5002B2D522AB
:10022900EC30E7100FBF000C0EBE00080DBD000436
:100239000BEB6014A2D5EB13FCED92E7FD2274FFE2
:10024900FCFDFEFF22E480F8A2D574FF13FC7D803B
:03025900E480EF4F
:10061B00020003E493A3F8E493A34003F68001F2F2
:10062B0008DFF48029E493A3F85407240CC8C333E0
:10063B00C4540F4420C8834004F456800146F6DFAF
:10064B00E4800B010204081020408090083AE47EFD
:10065B00019360BCA3FF543F30E509541FFEE493A4
:10066B00A360010ECF54C025E060A840B8E493A36B
:10067B00FAE493A3F8E493A3C8C582C8CAC583CA96
:10068B00F0A3C8C582C8CAC583CADFE9DEE780BE4E
:0108530000A4
:10025C00BC000BBE0029EF8DF084FFADF022E4CC86
:10026C00F875F008EF2FFFEE33FEEC33FCEE9DEC4F
:10027C00984005FCEE9DFE0FD5F0E9E4CEFD22ED95
:10028C00F8F5F0EE8420D21CFEADF075F008EF2FDF
:10029C00FFED33FD4007985006D5F0F222C398FDD0
:0502AC000FD5F0EA226D
:10069B00C2D5E830E70FB2D5E4C39BFBE49AFAE48A
:1006AB0099F9E498F8EC30E717B2D51206D112029B
:1006BB00FBE4C39BFBE49AFAE499F9E498F8800312
:1006CB001202FB30D50DE4C39FFFE49EFEE49DFDBB
:0406DB00E49CFC227D
:0E02B100C3E49FFFE49EFEE49DFDE49CFC225E
:1002BF0075F008758200EF2FFFEE33FECD33CDCCF6
:1002CF0033CCC58233C5829BED9AEC99E582984079
:1002DF000CF582EE9BFEED9AFDEC99FC0FD5F0D656
:1002EF00E4CEFBE4CDFAE4CCF9A88222B800C1B980
:1002FF000059BA002DEC8BF084CFCECDFCE5F0CBBE
:10030F00F97818EF2FFFEE33FEED33FDEC33FCEBF6
:10031F0033FB10D703994004EB99FB0FD8E5E4F9B1
:10032F00FA227818EF2FFFEE33FEED33FDEC33FC9E
:10033F00C933C910D7059BE99A4007EC9BFCE99A92
:10034F00F90FD8E0E4C9FAE4CCFB2275F010EF2FD7
:10035F00FFEE33FEED33FDCC33CCC833C810D707D7
:10036F009BEC9AE899400AED9BFDEC9AFCE899F812
:0E037F000FD5F0DAE4CDFBE4CCFAE4C8F922A5
:00000001FF
