:030000000207E60E
:0C07E600787FE4F6D8FD75814702082DED
:100B2B00B3CCD0F2B3F5CABCBBAFB3C9B9A6A3A1C2
:010B3B0000B9
:100A7F00013401033623595503302212120927007E
:100A8F000000000100BFBFBF012600013E03C1856A
:050A9F00013303C10357
:100B1A00E52675F003A42427F8E6B4BF02C322D35E
:010B2A0022A8
:100AE100E4FFE52675F003A424272FF876BF0FBF96
:020AF10003F010
:010AF30022E0
:060747008B098A0A890BF0
:10074D008D8275830012053EFFC4540F75F00AA407
:10075D00FEEF540F2EFFED7005750C238003750C05
:10076D0059A208B35038AB09AA0AA90B8D8275831B
:10077D000012053EB50C088D82758300E480560F7E
:10078D00EF75F00A84C454F0FEEF75F00A84EE257F
:10079D00F0AB09AA0AA90B8D827583008037AB09CE
:1007AD00AA0AA90B8D8275830012053E70088D82F1
:1007BD00F583E50C801F1FEF75F00A84C454F0FE1D
:1007CD00EF75F00A84EE25F0AB09AA0AA90BAE0568
:0807DD008E8275830012057D78
:0107E50022F1
:0803DF008B098A0A890B8D0CC1
:1003E700850C8275830012053EFFC4540F75F00A11
:1003F700A4FEEF540F2EF50D120525FDC4540F75FD
:10040700F00AA4FFED540F7C002FFFEC35F0CF244A
:10041700D0F511EF3407F510E50C14600F146011D7
:1004270024027075750E99E4F50F806D750E1280B4
:1004370065AB09AA0AA90B90000112053EFB6402ED
:10044700702DE5115403700EAE10AF11FC7D6412D0
:10045700059FED4C700FAE10AF117C017D9012051A
:100467009FED4C7005750E29802C750E288027EBA3
:100477006404601AAB09AA0AA90B90000112053E91
:10048700FF64066009EF64096004EFB40B05750E9D
:10049700308003750E31750F01A208B3503FAB09C9
:1004A700AA0AA90B850C8275830012053EB50E0AB0
:1004B700850C82758300E50F8060050DE50D75F0ED
:1004C7000A84C454F0FFE50D75F00A84EF25F0ABFC
:1004D70009AA0AA90B850C82758300803DAB09AA7E
:1004E7000AA90B850C8275830012053EB50F0A8594
:1004F7000C82758300E50E8021150DE50D75F00A58
:1005070084C454F0FFE50D75F00A84EF25F0AB09BC
:0D051700AA0AA90B850C8275830012057DD0
:0105240022B4
:10002600E53CC3940A500302023C120B5DE4F53C26
:10003600E519B41807E533B40302D20030001CE515
:10004600187018C200F5220534E534C39404400341
:10005600753401E534B40303E4F526300015E518DC
:10006600B418100522E522C394644007C200E4F5E3
:1000760022B205E519B41410E534B4030B0526E5E0
:100086002675F0038485F026E518B42419E534B402
:100096000314E533B4030F0522E522C39464400636
:0F00A600E4F522120AE1E519642860030201A8BB
:1000B500E533C3940250030201A6E534D39403400B
:1000C5000302014C74032534F534A2059207C205D9
:1000D500B4041AE4F50874362508F8E6FF743925E2
:1000E50008F8A6070508E508B403EB8055E534B420
:1000F500051AE4F50874302508F8E6FF7439250873
:10010500F8A6070508E508B403EB8036120B1A506C
:1001150020E4F508E52675F003A424272508F8E66C
:10012500FF74392508F8A6070508E508B403E58036
:1001350011E4F50874392508F8E4F60508E508B46E
:1001450003F2E4F533805C74FD2534F534B4011114
:10015500750C00750D00750E307B007A00793980BD
:1001650014E534B40214750C00750D00750E397B59
:10017500007A0079361208EC801EE4F508743925FA
:1001850008F8E6FFE52675F003A424272508F8A658
:10019500070508E508B403E5A20792057533038052
:0301A5000205331D
:1001A800E51864816005E518B48816E533640360D2
:1001B8001005220523E522C394964005D202E4F5F2
:1001C80022E51964816005E519B48805E533B403AF
:0B01D8000A300241E523C3940A403ABC
:1001E300E518B48804D2078002C207E534B40408D2
:1001F3007B007A0079398016E5347B007A007939FF
:10020300B4050BA2079208AD331203DF8009A207DE
:0A0213009208AD33120747E4F5230B
:10021D00300612E518600EC206E4F53D753E03FD8D
:0F022D007FA0120B6BE5187006F522F523C202B5
:01023C00229F
:10023D007542BF7545BFE53424FE603714606124F7
:10024D0002600302030DE536C4540F900B4D93F578
:10025D0040E536540F93F541E537C4540F93F543FC
:10026D00E537540F93F544E538C4540F93F546E53F
:10027D00388075E530C4540F900B4D93F540E53043
:10028D00540F93F541E531C4540F93F543E53154C3
:10029D000F93F544E532C4540F93F546E53280488B
:1002AD00120B1AE52675F0035044A42427F8E6FF37
:1002BD00C4540F900B4D93F540EF540F93F541E55A
:1002CD002675F003A42428F8E6FFC4540F93F543D4
:1002DD00EF540F93F544E52675F003A42429F8E6B1
:1002ED00FFC4540F93F546EF540F93F54722A42402
:1002FD0027F8E6F540F541F543F544F546F5472277
:10030D00E53375F003A4F508FB7A002403FFEA3307
:10031D00FE7C007D0912059F8D09EB2406FFEA3353
:10032D00FE7C007D0912059F8D0AE533FB2401FF3C
:10033D00EA33FE7C007D0312059F8D0BEB2402FF3B
:10034D00EA33FE7C007D0312059F8D0C20030330E4
:10035D00022874392533F8E6C4540F900B4D93FFE2
:10036D0074402508F8A60774392533F8E6540F9321
:10037D00FF74412508F8A607800E74402508F8760D
:10038D00FF74412508F876FF7439250BF8E6C4543F
:10039D000F900B4D93FF74402509F8A6077439256E
:1003AD000BF8E6540F93FF74412509F8A60774392D
:1003BD00250CF8E6C4540F93FF7440250AF8A607E0
:1003CD007439250CF8E6540F93FF7441250AF8A6ED
:0103DD000718
:0103DE0022FC
:1006A400E53424FE601214601114601014601214F6
:1006B40060082405701380048007800A7508FE8092
:1006C400087508FD80037508FBE53464036005E5DF
:1006D40034B40619E52614600C14600E2402700D5F
:1006E4005308F780085308EF80035308DF300503ED
:1006F4005308BFE5336403600630030353087F30B7
:10070400061EE534B40319E53E14600C14600E248F
:1007140002700D4308088008430810800343082032
:10072400300419E53E14600C14600E2402700D535D
:1007340008F780085308EF80035308DFAD087F8073
:03074400020B6B3A
:10087200A206B35033E4FFEF75F003A42429F8E68F
:1008820065387020EF75F003A42428F8E6B5371414
:10089200EF75F003A42427F8E6B53608D206D20194
:1008A2008F3E80040FBF03CF300626300410300184
:1008B2000D7D407FA0120B6BB201053D8013A20497
:1008C200B3500EA201B35009E4FD7FA0120B6BB22C
:1008D20001E53DD394144011E4FD7FA0120B6B752A
:0908E2003E03C206C201E4F53D2B
:0108EB0022EA
:1009E300120B3C120AF412000E750C00750D007503
:1009F3000E307B007A0079361208EC7BFF7A0B7994
:100A03002B120AA812002612023D1206A43005F486
:0A0A1300E533B403EF12087280EA25
:03000B000205F4F7
:1005F400C0E0C0F0C083C082C0D075D000C000C0CD
:0D06040001C002C003C004C005C006C0074D
:10061100120A51053CE53CC3940A406C0524E524CB
:10062100940A40157515007516007517307B007A10
:1006310000793612094E7524003006380525E52566
:10064100D3940A5004D204801FE525D39414500496
:10065100C2048014E525D3941E5004D2048009E518
:1006610025D394285002C204E525C394644005C2F1
:1006710004752500E5336403600E0535E535C39443
:080681001E4005B203753500AF
:10068900D007D006D005D004D003D002D001D000C5
:0B069900D0D0D082D083D0F0D0E0326F
:03002300020B7855
:010B7800324A
:0D0B6B00E5A0541F4FF5A08D8053A01F2260
:10000E00E4FD7FA0120B6B7DFF7F80120B6BD2A9DC
:05001E00D2ACD2AF22BC
:100B3C00538E7F5389F0758A18758CFCC28DD28CBC
:010B4C002286
:100AF400759850438E01538EFB75D7E675D6FF4328
:030B04008E10222E
:080003008F993099FDC299228A
:100AA8008B088A09890AAB08AA09A90A12052560D0
:100AB80013050AE50A7002050914F9120525FF1243
:050AC800000380E222A2
:100B0700E4FEC297EF1392A3EFC313FFD2970EBE73
:020B170008F0E4
:010B190022B9
:100ACD00C29300C29700D29300120B07AF05120B11
:040ADD0007C2932297
:100A1D00E4FDC29300C29700D29300120B07E4FFCE
:100A2D00C297EDC313FD30A303430580D2970FBFCB
:100A3D0008EEC29300C29700D29700C2A300D2A3C2
:030A4D0000AF05F2
:010A50002283
:1008EC00E4FD7F8E120ACD120525FD7F84120ACD00
:1008FC0090000112053EFD7F82120ACD900002127B
:10090C00053EFD7F80120ACDAB0CAA0DA90E120577
:10091C0025FD7F8C120ACDAB0CAA0DA90E900001FF
:10092C0012053EFD7F88120ACDAB0CAA0DA90E90C4
:10093C00000212053EFD7F86120ACD7D807F8E025D
:02094C000ACDD2
:06094E008B128A138914CC
:10095400E4FCEC25E0FFC374859FFF120A1DAB1273
:10096400AA13A9148C82758300EF12057D0CBC03B5
:10097400E17F8D120A1DAB15AA16A917EF12056B9C
:100984007F89120A1DAB15AA16A917900001EF1250
:10099400057D7F87120A1DAB15AA16A917900002C0
:0409A400EF02057DDC
:1009A8007FFF75B0F075C0FF20C4027F7020C202BF
:1009B8007FB020B5027FD020B4027FE075B00FE48D
:1009C800F5C020B30343070720B20343070B20B148
:0A09D8000343070D20B00343070E90
:0109E20022F2
:0D0B5D001209A8EFF4FF65185FF5198F1855
:010B6A002268
:100B4D00C0F9A4B0999282F880908883C6A1868E50
:030AA400013F000F
:100A5100E4FD7FC0120B6B7440253FF8E6FD7FE09B
:100A6100120B6BAF3F7401A807088002C333D8FC97
:0D0A7100FD7FC0120B6BE53F045407F53FFD
:010A7E002255
:1007F2000209E3E493A3F8E493A34003F68001F231
:1008020008DFF48029E493A3F85407240CC8C33307
:10081200C4540F4420C8834004F456800146F6DFD6
:10082200E4800B0102040810204080900A7FE47EDD
:10083200019360BCA3FF543F30E509541FFEE493CB
:10084200A360010ECF54C025E060A840B8E493A392
:10085200FAE493A3F8E493A3C8C582C8CAC583CABD
:10086200F0A3C8C582C8CAC583CADFE9DEE780BE75
:010AA700004E
:10052500BB010689828A83E0225002E722BBFE02D4
:09053500E32289828A83E4932207
:10053E00BB010CE58229F582E5833AF583E0225072
:10054E0006E92582F8E622BBFE06E92582F8E222BC
:0D055E00E58229F582E5833AF583E49322D6
:10056B00BB010689828A83F0225002F722BBFE016F
:02057B00F32269
:10057D00F8BB010DE58229F582E5833AF583E8F0B4
:10058D00225006E92582C8F622BBFE05E92582C860
:02059D00F22248
:10059F00BC000BBE0029EF8DF084FFADF022E4CC40
:1005AF00F875F008EF2FFFEE33FEEC33FCEE9DEC09
:1005BF00984005FCEE9DFE0FD5F0E9E4CEFD22ED4F
:1005CF00F8F5F0EE8420D21CFEADF075F008EF2F99
:1005DF00FFED33FD4007985006D5F0F222C398FD8A
:0505EF000FD5F0EA2227
:00000001FF
