:03000000020353A5
:0C035300787FE4F6D8FD75813102039A32
:08091500031A235955011E1EAF
:1003DF00E51570537515017FFF1208337F41120722
:1003EF003EAC07E4120216E4FBFA794C7842120194
:1003FF006F8F0F8E0E8D0D8C0C7F4312073EAC0747
:10040F00E4120216E4FBFA794C784212016F8F0B5B
:10041F008E0A8D098C081205F2AC07E41202168FB2
:08042F00198E188D178C16229E
:10057600E51470397514011208EDAF317E00EF6491
:10058600887002151EEF64844E7002051EEF6444E7
:100596004E701AFB7A00791E752E08FD1205327B05
:0E05A600007A00791D752E08E4FD12048F22E4
:10043700E4FFEFC3940474809480500974222FF86A
:1004470076FF0F80EDAF19AE18AD17AC1612024A42
:10045700EF75F0648475F00A84E5F090093A93F536
:1004670027EF75F00A8475F00A84E5F093F528AF55
:1004770019AE18AD17AC1612024AEF75F00A84E5EB
:07048700F090093A93F529FA
:01048E00224B
:0E094A0000007F237E337DB6DDFEDEFCDFFA8B
:01095800227C
:10066D001209681208D91206D912094A7B007A00BC
:10067D00791A1205B47B007A00791A12070D7B00E6
:10068D007A00791D752E08E4FD12048F1203DF1216
:07069D00057612043780F519
:0300630002000395
:10000300C0E0C0F0C083C082C0D075D000C000C0C3
:1000130001C002C003C004C005C006C00712076EBA
:100023000514C3E514940A74809480400375140086
:100033000515C3E51594C8748094804003751500B5
:10004300D007D006D005D004D003D002D001D00011
:0B005300D0D0D082D083D0F0D0E032BB
:0D096800538EFB75D71875D6FC438E1022F8
:0D097500E5A0541F4FF5A08D8053A01F2258
:1008D900E4FD7FA01209757DFF7F8012097543AF82
:0408E90004D2AF2264
:04088D00D2A07F0A6C
:10089100000000000000000000000000000000AEA9
:0608A100071FEE70EB22C0
:0F095900D2A112088DC2A17F0A120891C2A0225A
:0C098200C2A112088DD2A17F0A020891C8
:0206A400AD07A0
:1006A600E4FCECC39408748094805024C2A07F0AB2
:1006B600120891ED30E704D2A18002C2A17F0A128E
:1006C6000891D2A0ED25E0FD7F0A1208910C80D298
:0206D600C2A0C0
:0106D80022FF
:1007EA00E4FCECC3940874809480501712088DEDD1
:1007FA0025E0FD30A103430501C2A07F0A1208913A
:05080A000C80DFAF05CA
:01080F0022C6
:1009280012088DA2A1E433FDC2A07F0A120891AF7C
:0109380005B9
:01093900229B
:1008C100C2A0EF24FF92A17F0A12089112088DC2E3
:0808D100A0D2A17F0A020891E8
:040853007F057E009F
:10085700EF1FAA0670011E4A600FE4FDEDC3940C5A
:090867007480948050EA0D80F3C6
:010870002265
:02079C00A907AB
:10079E00E4FBEBC39408748094805012C294E91366
:1007AE009294120853D294E9C313F90B80E47F0597
:0507BE007E0002085757
:10081000E4FBEBC39408748094805014C294ECC33E
:1008200013FCD2943094034304801208530B80E2EB
:02083000AF0413
:0108320022A3
:1007C300C200D2947F0C7E00120857C2947F507EE1
:1007D30000120857D2947F0A7E00120857A29492FF
:0607E30000120853A20001
:0107E90022ED
:1004E3007FFFD2C4D2C2D2B5D2B4C2B3C2B2C2B1F8
:1004F300C2B020C4027F7020C2027FB020B5027F49
:10050300D020B4027FE0D2B3D2B2D2B1D2B0C2C44F
:10051300C2C2C2B5C2B420B30343070720B2034328
:0E052300070B20B10343070D20B00343070E62
:0105310022A7
:1008ED001204E3EFF4FF652FFE5FF531EFF45EF5D3
:0308FD00308F2F0A
:0109000022D4
:10093A00C0F9A4B0999282F880908883C6A1868E65
:0A091D000822FFFFFFFFFFFFFFFFAE
:10076E00E4FD7FC012097574222521F8E6FD7FE0B5
:10077E00120975AF21A8077401088002C333D8FC93
:0D078E00FD7FC0120975E521045407F52117
:01079B00223B
:10087100E4FEEEC3940874809480500FC297EF1386
:0B08810092A3EFC313FFD2970E80E795
:01088C002249
:10090100C29300C29700D29300120871AF0512087A
:0409110071C29322FA
:10063000E4FDC29300C29700D29300120871E4FF58
:10064000EFC39408748094805011C297EDC313FDDA
:1006500030A303430580D2970F80E5C29300C29771
:0C06600000D29700C2A300D2A300AF0597
:01066C00226B
:0605B4008B2A8A2B892C22
:1005BA00E4FD7F8E120901E4FCECC3940374809479
:1005CA0080501EEC25E0FFC374849FFFAB2AAA2B40
:1005DA00A92C8C827583001202E4FD1209010C8099
:0805EA00D87D807F8E0209011B
:06070D008B2A8A2B892CC7
:10071300E4FCECC3940374809480501EEC25E0FF4A
:10072300C374859FFF120630AB2AAA2BA92C8C8297
:0A073300758300EF1203230C80D839
:01073D002299
:1006D9001207C37FCC12079C7F4412079C1207C3E1
:1006E9007FCC12079C7FBE12079C1208108F2A121A
:1006F9000810EFAD2AFCEC120211E4FBFA798078BC
:040709004102016F39
:02073E008F2A00
:100740001209597F901206A4120928AF2A1206A492
:100750001209281209597F911206A41209281207BA
:0D076000EA8F2B7F011208C1120982AF2B16
:01076D002269
:100833008F2A1209597F901206A41209287F911258
:1008430006A4120928AF2A1206A412092802098253
:100532008B2A8A2B892C8D2D1209597FA01206A491
:10054200120928AF2D1206A4120928AF2E152EEF7C
:10055200601FAB2A052CE52CAA2B7002052B14F97F
:100562001202CBFF1206A41209287FC8120891803A
:04057200DA0209821E
:10048F008B2A8A2B892C8D2D1209597FA01206A435
:10049F00120928AF2D1206A41209281209597FA19B
:1004AF001206A4120928AF2E152EEF60241207EAA8
:1004BF00AB2A052CE52CAA2B7002052B14F9EF1291
:1004CF000311E52E6004E4FF80027F011208C18052
:0404DF00D5020982B7
:06098E0000007F26DFFEE1
:010994002240
:1008A700E4FEEEC3940874809480500DD290120930
:0908B7008EC29012098E0E80E938
:0108C0002215
:1005F200E4F5E9F5F9F5D8C2AF1208A7D2AFD2DE19
:10060200309105A2DFB340F8C2DE20DF1CAFF9EF64
:10061200FEADE9EDFFAC06E41202117B967A437956
:0D0622008B783C12006602024AC2DF7F00A6
:01062F0022A8
:10006600EC4D6011E8497017ED33EC3304600DE494
:10007600FCFFFEFD22E933E8330470F80202B612F3
:10008600028158046009E4CC2481500628500902F4
:1000960002C02840030202BDC0E0EB4A7044B980AA
:1000A60006D0E0FB0202ACEF4E701CBD8008EBFFF1
:1000B600EAFEE9FD80EBE98DF0A4FEE5F002014FD2
:1000C600E9CDF9EAFEEBFFEF89F0A4FCE5F0CE8975
:1000D600F0A42EFFE435F0CD89F0A42DFEE435F032
:1000E6008067EF4E7005BD80D780C3EF8BF0A4AC60
:1000F600F0EE8BF0A42CFCE435F0F8EF8AF0A42C9B
:10010600E5F038FCE433CB8DF0A42CFCE5F03BF8AD
:10011600EE8AF0A42CFCE5F038F8E433CF89F0A49D
:100126002CFCE5F038CF3400CE89F0A42FFFE5F0A3
:100136003EFEE433C98DF0A42EFEE5F039CD8AF0FB
:10014600A42FFFE5F03EFEE43DFD33D0E0FB500773
:100156000BBB000F0202C0EC2CFCEF33FFEE33FEAC
:06016600ED33FD020298DA
:10016C000202C0EC5D046005E8590470030202B69B
:10017C00120281580460F6EC4860F2EC7004FDFE4B
:10018C00FF22C860DB2481C85009C3986002500666
:10019C000202BD9850CAF582E9294B4A7005AB8220
:1001AC000202AC75F0007C1A7880C3EF9BEE9AEDDE
:1001BC0099400DC3EF9BFFEE9AFEED99FDE842F0DE
:1001CC00DC23ACF0D0E0FFD0E0FED0E0FDAB822031
:1001DC00E7101BEB60BAEC2CFCEF33FFEE33FEEDBB
:1001EC0033FD020298E803F830E705C0F075F00023
:1001FC00EF2FFFEE33FEED33FD40B830E7C280AA9F
:10020C0075F020800E75F010800575F0087D007E6D
:10021C00007F003392D530D503120345EC334010E8
:10022C00EF33FFEE33FEED33FDEC33FCD5F0ED2276
:0E023C00E5F0247EA2D513CC92E7CDCEFF22B2
:10024A00EDD2E7CD33EC3392D524814006E4FFFEAC
:10025A00FDFC22FCE4CFCECDCC24E0501174FF800B
:10026A00EDC3CC13CCCD13CDCE13CECF13CF0470A8
:07027A00F030D5DE02034560
:10028100E9D2E7C933E833F892D5EDD2E7CD33ECC3
:0702910033FC5002B2D5223C
:10029800EC30E7100FBF000C0EBE00080DBD0004C7
:1002A8000BEB6014A2D5EB13FCED92E7FD2274FF73
:1002B800FCFDFEFF22E480F8A2D574FF13FC7D80CC
:0302C800E480EFE0
:10035F0002066DE493A3F8E493A34003F68001F241
:10036F0008DFF48029E493A3F85407240CC8C3339F
:10037F00C4540F4420C8834004F456800146F6DF6E
:10038F00E4800B0102040810204080900915E47EE0
:10039F00019360BCA3FF543F30E509541FFEE49363
:1003AF00A360010ECF54C025E060A840B8E493A32A
:1003BF00FAE493A3F8E493A3C8C582C8CAC583CA55
:1003CF00F0A3C8C582C8CAC583CADFE9DEE780BE0D
:0109270000CF
:1002CB00BB010689828A83E0225002E722BBFE0231
:0902DB00E32289828A83E4932264
:1002E400BB010CE58229F582E5833AF583E02250CF
:1002F40006E92582F8E622BBFE06E92582F8E22219
:0D030400E58229F582E5833AF583E4932232
:10031100BB010689828A83F0225002F722BBFE01CB
:02032100F322C5
:10032300F8BB010DE58229F582E5833AF583E8F010
:10033300225006E92582C8F622BBFE05E92582C8BC
:02034300F222A4
:0E034500C3E49FFFE49EFEE49DFDE49CFC22C9
:00000001FF
