:030000000205C630
:0C05C600787FE4F6D8FD75812502060D53
:0F085100C1810109170312235950010F01C18002
:10049F00E51060030205377510017B007A007912B1
:1004AF001207981206D68F0E8E0D8D0C8C0BA20391
:1004BF00B3500FE513700BE514C394055004D2032A
:1004CF00800C300309E514C394054002C2033005C4
:1004DF0020A202B3500EE513700AE514C394055021
:1004EF0003D20222300241E514C39405403AC202FE
:1004FF0022A202B35018AC09E412028FAB0EAA0D60
:10050F00A90CA80B12020C60054003D20222300284
:10051F0017AC09E412028FAB0EAA0DA90CA80B128F
:09052F00020C60025002C202221B
:10000300E515704F7515011208FCE525B4280CE5BC
:100013000FB40304750F0122050F22E525B4240252
:10002300B205E50FB4020BE524B41404D204800234
:10003300C204E50FB4031CE525B41809E509C3940C
:100043006350020509E525B41409E509D3940A4070
:040053000215092267
:1003A100E50A600302049E750A017518C1E50F9004
:1003B10008DD93F519E50F24FE6073147003020440
:1003C1007B2402600302049E751AFF751BFF751CD6
:1003D100FFE4FBFA79207841AF0EAE0DAD0CAC0B0A
:1003E10012016F1202C3EF75F00A84E5F09008DD87
:1003F10093F51DAF0EAE0DAD0CAC0B1202C3EF7534
:10040100F00A84E5F09008DD93547FF51EE4FFFEC9
:100411007D207C41AB0EAA0DA90CA80B120066121F
:1004210002C3EF75F00A84E5F09008DD806C751A5F
:10043100FFA204B35021E512C4540F9008DD93F5D7
:100441001BE512540F93F51C751DBFE513C4540F22
:1004510093F51EE513801FE513C4540F9008DD9337
:10046100F51BE513540F93F51C751DBFE514C4541A
:100471000F93F51EE514540F8020751AFF751BFFAD
:10048100751CFF751DFFE50975F00A849008DD9361
:0E049100F51EE50975F00A84E5F093F51F22CB
:1007E7007DFFE516701F7516013003035305FEA242
:1007F70005B350035305FD3002063001035305FBD3
:050807007F80120917BB
:01080C0022C9
:10076D00E511702675110130020D30000A7D107FE4
:10077D00A0120917C20022A202B3500EA200B3505C
:0B078D0009E4FD7FA0120917D2002232
:0E08ED0000007F237E337DB6DDFEDEFCDFFAE9
:0108FB0022DA
:10080D001206D61208ED12090A1208A27B007A0010
:10081D0079121206A112049F1200031203A11207EE
:06082D00E712076D80EFE9
:030063000205385B
:10053800C0E0C0F0C083C082C0D075D000C000C089
:0D05480001C002C003C004C005C006C0070A
:1005550012073F0510E510C39432400375100005DE
:1005650015E515C3940A4003751500050AE50AC388
:1005750094C84003750A000516E516C3940A40039E
:100585007516000511E511C3940A40037511003075
:10059500020D0508E508C39464400BB2018004E52B
:0605A50008600375080068
:1005AB00D007D006D005D004D003D002D001D000A4
:0B05BB00D0D0D082D083D0F0D0E0324E
:0D090A00438E0475D72075D6D1438E102280
:0D091700E5A0541F4FF5A08D8053A01F22B6
:1008A200E4FD7FA01209177DFF7F8012091743AF75
:0408B20004D2AF229B
:04086E007F057E0084
:10087200EF1FAA0670011E4A600BE4FDEDC3940C43
:0508820050EE0D80F7AF
:01088700224E
:02083300A90713
:10083500E4FBC294E913929412086ED294E9C313AF
:0C084500F90BBB08ED7F057E0002087275
:10088800E4FBC294ECC313FCD29430940343048079
:0908980012086E0BBB08EBAF0463
:0108A1002234
:1007C000C206D2947F0C7E00120872C2947F507EC3
:1007D00000120872D2947F0A7E00120872A29492CC
:0607E0000612086EA206DD
:0107E60022F0
:100652007FFFD2B4D2B5D2C2D2C4C2B0C2B1C2B28A
:10066200C2B320C4027F7020C2027FB020B5027FD5
:10067200D020B4027FE0D2B0D2B1D2B2D2B3C2B4EF
:10068200C2B5C2C2C2C420B30343070720B20343A8
:0E069200070B20B10343070D20B00343070EF2
:0106A0002237
:0D08FC00120652EFF4FF65245FF5258F24EE
:0109090022CB
:1008DD00C0F9A4B0999282F880908883C6A1868EC3
:0D0860000818FFFFFFFFFFFFFFFF0117005B
:10073F00E4FD7FC012091774182517F8E6FD7FE056
:10074F00120917AF177401A807088002C333D8FC2A
:0D075F00FD7FC0120917E517045407F517B8
:01076C00226A
:1008CA00E4FEC297EF1392A3EFC313FFD2970EBEB3
:0208DA0008F024
:0108DC0022F9
:1008B600C29300C29700D293001208CAAF0512086D
:0408C600CAC29322ED
:10070B00E4FDC29300C29700D293001208CAE4FF23
:10071B00C297EDC313FD30A303430580D2970FBFE0
:10072B0008EEC29300C29700D29700C2A300D2A3D7
:03073B0000AF0507
:01073E002298
:0606A1008B218A2289234F
:1006A700E4FD7F8E1208B6E4FCEC25E0FFC37484FA
:1006B7009FFFAB21AA22A9238C82758300120344D2
:0F06C700FD1208B60CBC03E17D807F8E0208B6E1
:060798008B218A22892357
:10079E00E4FCEC25E0FFC374859FFF12070BAB2131
:1007AE00AA22A9238C82758300EF1203710CBC035D
:0107BE00E159
:0107BF002217
:1006D6001207C07FCC1208337F441208331207C0BA
:1006E6007FCC1208337FBE1208331208888F21127E
:1006F6000888EFAD21FCE412028AE4FBFA798078DF
:040706004112016F2C
:01070A0022CC
:10006600EC4D6011E8497017ED33EC3304600DE494
:10007600FCFFFEFD22E933E8330470F802032F1279
:1000860002FA58046009E4CC24815006285009027B
:100096000339284003020336C0E0EB4A7044B980B6
:1000A60006D0E0FB020325EF4E701CBD8008EBFF77
:1000B600EAFEE9FD80EBE98DF0A4FEE5F002014FD2
:1000C600E9CDF9EAFEEBFFEF89F0A4FCE5F0CE8975
:1000D600F0A42EFFE435F0CD89F0A42DFEE435F032
:1000E6008067EF4E7005BD80D780C3EF8BF0A4AC60
:1000F600F0EE8BF0A42CFCE435F0F8EF8AF0A42C9B
:10010600E5F038FCE433CB8DF0A42CFCE5F03BF8AD
:10011600EE8AF0A42CFCE5F038F8E433CF89F0A49D
:100126002CFCE5F038CF3400CE89F0A42FFFE5F0A3
:100136003EFEE433C98DF0A42EFEE5F039CD8AF0FB
:10014600A42FFFE5F03EFEE43DFD33D0E0FB500773
:100156000BBB000F020339EC2CFCEF33FFEE33FE32
:06016600ED33FD02031160
:10016C00020339EC5D046005E85904700302032FA7
:10017C001202FA580460F6EC4860F2EC7004FDFED2
:10018C00FF22C860DB2481C85009C3986002500666
:10019C000203369850CAF582E9294B4A7005AB82A6
:1001AC0002032575F0007C1A7880C3EF9BEE9AED64
:1001BC0099400DC3EF9BFFEE9AFEED99FDE842F0DE
:1001CC00DC23ACF0D0E0FFD0E0FED0E0FDAB822031
:1001DC00E7101BEB60BAEC2CFCEF33FFEE33FEEDBB
:1001EC0033FD020311E803F830E705C0F075F000A9
:1001FC00EF2FFFEE33FEED33FD40B830E7C280AA9F
:10020C0074F8CC6480CCC86480C8F58204604FC399
:10021C00EB9FF5F0EA9E42F0E99D42F0E89C45F038
:10022C00603C501DE5825FFFE582D313CB5BCBF4C2
:10023C002B5582FB50280ABA002409B900200880EB
:10024C001DE5825BFBE582D313CF5FCFF4C3132F85
:10025C005582FF50090EBE00050DBD00010CC3EB0D
:10026C009FF5F0EA9E42F0E99D42F0E89C45F06073
:09027C0007CC4820E701B3EC2295
:1002850075F020800E75F010800575F0087D007EF4
:10029500007F003392D530D503120393EC33401021
:1002A500EF33FFEE33FEED33FDEC33FCD5F0ED22FD
:0E02B500E5F0247EA2D513CC92E7CDCEFF2239
:1002C300EDD2E7CD33EC3392D524814006E4FFFE33
:1002D300FDFC22FCE4CFCECDCC24E0501174FF8092
:1002E300EDC3CC13CCCD13CDCE13CECF13CF04702F
:0702F300F030D5DE02039399
:1002FA00E9D2E7C933E833F892D5EDD2E7CD33EC4A
:07030A0033FC5002B2D522C2
:10031100EC30E7100FBF000C0EBE00080DBD00044D
:100321000BEB6014A2D5EB13FCED92E7FD2274FFF9
:10033100FCFDFEFF22E480F8A2D574FF13FC7D8052
:03034100E480EF66
:1005D20002080DE493A3F8E493A34003F68001F22A
:1005E20008DFF48029E493A3F85407240CC8C3332A
:1005F200C4540F4420C8834004F456800146F6DFF9
:10060200E4800B0102040810204080900851E47E2F
:10061200019360BCA3FF543F30E509541FFEE493ED
:10062200A360010ECF54C025E060A840B8E493A3B4
:10063200FAE493A3F8E493A3C8C582C8CAC583CADF
:10064200F0A3C8C582C8CAC583CADFE9DEE780BE97
:01086D00008A
:10034400BB010CE58229F582E5833AF583E022506E
:1003540006E92582F8E622BBFE06E92582F8E222B8
:0D036400E58229F582E5833AF583E49322D2
:10037100F8BB010DE58229F582E5833AF583E8F0C2
:10038100225006E92582C8F622BBFE05E92582C86E
:02039100F22256
:0E039300C3E49FFFE49EFEE49DFDE49CFC227B
:00000001FF
