:0300000002115A90
:0C115A00787FE4F6D8FD7581220211A117
:1011E600CAB1BCE4D2D1C9E8D6C3A3A100B4AEBF8C
:1011F600DAC4A3CABDB9D8B1D5A3A100C3DCC2EB7A
:10120600D0DEB8C4B3C9B9A6A3A10054696D6520E0
:101216003D20253032643A30303A30300D0A002510
:101226003032643A253032642D25303264434D2DF8
:101236002530332E3166A1E60D0A00B3CCD0F2B3C9
:0C124600F5CABCBBAFB3C9B9A6A3A10098
:10167B0081090088360102030405060708883EBF6E
:10168B00BFBFBFBFBFBFBF813508830C2359558375
:04169B00010000004A
:10131A0020091D7835E2FFEFC39408500F743E2F61
:10132A00F8E2FE743D2FF8EEF20F80EB7845803735
:10133A007835E270147F07743D2FF8E2FE743E2F71
:10134A00F8EEF2DFF2783E801E7F067835E2FEEF95
:10135A00C39E400F743E2FF8E2FE743F2FF8EEF260
:0A136A001F80E8743F2FF874BFF2F3
:011374002256
:1017C500AD07783EE2B4BF0EC20912131A7835E2AE
:0717D50014F27845EDF22249
:101843007845E264BF600AD20912131A7835E204BC
:02185300F2227F
:0F189B007F08783E74BFF208DFFC78357408F2DE
:0118AA00221B
:1017AC00E4FF74362FF8E2FE743E2FF8E26E60020E
:0817BC00C3220FEFB408EBD3C8
:0117C4002202
:10152200EF75F00A84C454F0FEEF75F00A84EE25DC
:10153200F0300511C454F0FF781EE2241BF8E25487
:101542000F4FF2800CFF781EE2241BF8E254F04F9A
:04155200F2B20522CA
:10158A0012144178041205AD12147CEF75F06484CC
:10159A00781AE5F0F27F411214B5EFD39480400433
:1015AA00D2048002C2043004047F3380027FFF1217
:0315BA00171622DF
:100A92007820E2C3940A5003020CFC12188AE4780C
:100AA20020F27809E26003020B687847E2B4880515
:100AB200E4FF1217C57847E2B448057F011217C553
:100AC2007847E2B428057F021217C57847E2B418C6
:100AD200057F031217C57847E2B444057F04121755
:100AE200C57847E2B424057F051217C57847E2B4FA
:100AF20014057F061217C57847E2B442057F071234
:100B020017C57847E2B422057F081217C57847E275
:100B1200B412057F091217C57847E2B4811E121775
:100B2200AC500F78097401F2E4FD7FA01218BB02E9
:100B3200189B12189B7D407FA01218BB7847E2B425
:100B420082031218437846E2B4840E7808E204F273
:100B5200E2C39464400312189B7808E26008784666
:100B6200E270037808F27809E2640170507846E294
:100B7200FFB4180E7808E204F2E2C394644003E47E
:100B820008F27808E26004EF7001F27847E2FFB4FD
:100B9200820A78097402F2D206C20722EFB4840AEA
:100BA20078097403F2D206D20722EFB481087809D9
:100BB2007404F2C2AC22EFB44103D208227809E2F3
:100BC200FF64026008EF64036003020CE83006571A
:100BD200A207B3501EE47851F27851E2FF240CF8D8
:100BE200E2FE741B2FF8EEF27851E204F2E2B40353
:100BF200E8802C7BFE7A00790178567403F27D0836
:100C02001212B9E47851F27851E2FF2401F8E2FEBF
:100C1200741B2FF8EEF27851E204F2E2B403E8E436
:070C2200781EF2D205C206A4
:100C29007847E21205D20C98110C87120C7B140C30
:100C39006F180C94210C83220C77240C6B280C8ED2
:100C4900410C7F420C73440C67480C9F810CDF8276
:100C59000CE6840C638800000CE8E4FF80227F0125
:100C6900801E7F02801A7F0380167F0480127F0511
:100C7900800E7F06800A7F0780067F0880027F0931
:100C8900121522805AE4781EF28054781E80497821
:100C99001E7402F28049A207B3500B7BFE7A0079D9
:060CA9001B12161F802C37
:100CAF00E47851F27851E2FF2401F8E2FE741B2F31
:100CBF00F8EEF27851E204F2E2B403E87BFE7A0038
:0C0CCF00790178567403F27D0812137549
:100CDB007809800278097401F28002D2087809E25F
:100CEB00B4040E7846E26481600778097401F2D28D
:020CFB00AC2229
:100CFD007809E2146053147003020D991470030205
:0F0D0D000D99147003020DDF24046003020E9091
:100D1C00E47851F27851E2FFC394084003020E903C
:100D2C00743E2FF8E2FF64BF78516010E2FEEF9042
:100D3C0018AB93FF74492EF8EFF28007E22449F8C0
:0A0D4C0074BFF27851E204F280CA8D
:100D5600780CE2FFC4540F9018AB937849F2EF5425
:100D66000F9308F2780DE2FFC4540F93784CF2EF1C
:100D7600540F9308F2780EE2FFC4540F93784FF2A3
:100D8600EF540F9308F2784B30020474BF80457419
:100D9600FF8041781BE2FFC4540F9018AB9378494B
:100DA600F2EF540F9308F2781CE2FFC4540F9378C5
:100DB6004CF2EF540F9308F2781DE2FFC4540F93E0
:100DC600784FF2EF540F9308F2784B30020474BF59
:100DD600800274FFF2784EF222781AE2FF75F00A6A
:100DE6008475F00A84E5F09018AB937849F2EF75B4
:100DF600F00A84E5F09308F2A204E4FE3324ABF58E
:100E060082EE3418F583E49308F20874BFF2E4FB2B
:100E1600FA79207841C0007804E2FC08E2FD08E295
:100E2600FE08E2FFD00012012F12020AEF75F00A47
:100E360084E5F09018AB93784DF27804E2FC08E272
:100E4600FD08E2FE08E2FF12020AEF75F00A84E5E9
:100E5600F09018AB93547F784EF2E4FFFE7D207C31
:100E6600417804E2FB08E2F908E2FA08E2CBF8125C
:100E7600002612020AEF75F00A84E5F09018AB938B
:0B0E8600784FF29018B7E49308F222B6
:101404007809E214601414601814601C1460202419
:10141400047021785174FEF2801A785174FDF280C0
:1014240013785174FBF2800C785174F7F2800578CC
:0D1434005174EFF27851E2FD7F800218BB89
:100E9100781FE2C394145003020FD1C203E4F2207D
:100EA1000803020FD17800E264066003020F5A784A
:100EB10009E2FF64026008EF64036003020F8578B2
:100EC10010E264536003020F8508E2646560030267
:100ED1000F8508E264746003020F85780FE224B382
:100EE100601B24FA602A240B70377813E224D0C4E3
:100EF10054F0FF08E224D04F781BF280247813E2EB
:100F010024D0C454F0FF08E224D04F781CF28011A1
:100F11007813E224D0C454F0FF08E224D04F781DA6
:100F2100F27809E2B4020B7BFE7A00791B12161FDC
:020F3100801C22
:100F3300E47851F27851E2FF2401F8E2FE741B2FAA
:0C0F4300F8EEF27851E204F2E2B403E8A8
:100F4F007BFF7A1179E6121556802B7800E2640444
:100F5F00702A780FE26443705408E2644B704E08B5
:100F6F00E26447704808E264427042C2087BFF7A2D
:100F7F001179F3121556E47800F28031780FE2649C
:080F8F0058702A08E2B447255E
:100F9700E47851F27851E2FF2411F8E2FE74362F1B
:100FA700F8EEF27851E204F2E2B408E87BFF7A1235
:050FB70079021215563D
:100FBC007800E2FF7E007D007BFE7A00790F12053F
:060FCC00F8E47800F222B7
:100FD200780CE2FFC4540F75F00AA4FEEF540F2EF2
:100FE2007851F2780DE2FFC4540F75F00AA4FEEFB7
:100FF200540F2E7852F2780EE2FFC4540F75F00AA5
:10100200A4FEEF540F2E7853F2A200B3502F18E231
:10101200702B08E27027785774FFF2087412F208F6
:101022007411F27851E2785AF27BFE7A0079211239
:1010320006807BFE7A007921121556D20030000B11
:101042007852E2700408E26002C2007809E26401A8
:101052007065A201B350507853E275F00384E5F055
:101062007045785774FFF2087412F2087425F2780A
:1010720051E2785AF27852E2785BF2781AE2785CBE
:10108200F27804E2FC08E2FD08E2FE08E2FF785D85
:101092001205AD7BFE7A0079211206807BFE7A0072
:1010A2007921121556D20130010D7853E275F00301
:0710B20084E5F06002C201B9
:0110B9002214
:10000E000000750823750933750AB6D50AFDD509A2
:04001E00FAD508F710
:0100220022BB
:1012520012144112147C12000E1218791218301254
:1012620017F37BFE7A00790C12161F7BFE7A007947
:101272000178567403F27D081213757BFE7A0079A9
:101282000178567403F27D081212B97BFF7A127943
:1012920041121556A208B35003120A9212140412F4
:1012A2000CFD120E91120FD2780BE2C3943240E47D
:0712B200E4F212158A80DD51
:03000B000210BA26
:1010BA00C0E0C0F0C083C08263A201C083C082C006
:1010CA00D075D000C000C001C002C003C004C00572
:1010DA00C006C0077820E204F27819E204F2121579
:1010EA00EE7819E2C3940A401E7BFE7A00790C124C
:1010FA0015BD780AE204F208E204F2300305781F0B
:10110A00E204F27819E4F27809E2FFB4010708E28E
:10111A00C394325013EF640260067809E2B4030EF6
:10112A00780AE2C394464006B202780AE4F2D0078B
:10113A00D006D005D004D003D002D001D000D0D040
:10114A00D082D08363A201D082D083D0F0D0E032A3
:030023000216F1D1
:1016F100C0E0C0D075D000C0003098127800E2245C
:101701000FF8E599F27800E204F2D203C298D00012
:05171100D0D0D0E03251
:0F18BB00E5A0541F4FF5A0AF058F8053A01F224B
:1017F300E4FD7FA01218BB7DFF7F801218BBD2A926
:05180300D2ACD2AF22BF
:10187900538E7F5389F0758A18758CFCC28DD28C72
:01188900223C
:0418D900D2A07F0515
:0818DD0000AE071FEE70F922B6
:0F18CA00D2A11218D9C2A17F051218DDC2A02227
:0C18E500C2A11218D9D2A17F050218DDA3
:02164E00AD07E6
:10165000E4FCC2A07F051218DDED30E704D2A180C2
:1016600002C2A17F051218DDD2A0ED25E0FD7F05A5
:0A1670001218DD0CECB408DAC2A079
:01167A00224D
:10175900E4FC1218D9ED25E0FD30A1034401FDC2D6
:0D176900A07F051218DD0CECB408E7AF05F9
:011776002250
:101855001218D9A2A1E433FDC2A07F051218DDAF8D
:01186500057D
:01186600225F
:1017DC00C2A0A20992A17F051218DD1218D9C2A0CD
:0717EC00D2A17F050218DD08
:041792007F057E0051
:10179600EF1FAA0670011E4A600BE4FDEDC3940C10
:0517A60050EE0D80F77C
:0117AB00221B
:02173A00A907FD
:10173C00E4FBC294E9139294121792D294E9C31366
:0D174C00F90BEBB408EC7F057E0002179648
:10177700E4FBC294ECC313FCD2943094034480FC82
:0A1787001217920BEBB408EAAF044E
:011791002235
:1016A300C209D2947F0C7E00121796C2947F507E9B
:1016B30000121796D2947F0A7E00121796A2949274
:0616C30009121792A209B2
:0116C90022FE
:10183000759850438E01538EFB75D7E675D6FF43DE
:031840008E1022E5
:080003008F993099FDC299228A
:101556007854EBF208EAF208E9F27854E2FB08E282
:10156600FA08E2F9120525601A7854E2FB0808E247
:10157600F92401F218E2FA3400F2120525FF1200EE
:041586000380D722E5
:10180800E4FEC297EF1392A3EFC313FFD2970EEE35
:03181800B408EF22
:01181B0022AA
:10181C00C29300C29700D29300121808AF05121899
:04182C0008C2932239
:1014ED00E4FDC29300C29700D29300121808E4FFE6
:1014FD00C297EDC313FD30A3034480FDD2970FEFC8
:10150D00B408EDC29300C29700D29700C2A300D2D7
:04151D00A300AF0573
:0115210022A7
:10161F00E4FD7F8E12181C120525FD7F8412181C05
:10162F0090000112053EFD7F8212181C90000212DD
:0F163F00053EFD7F8012181C7D807F8E02181CD7
:0A15BD00786BEBF208EAF208E9F29D
:1015C700E4FCEC25E0FFC374859FFF1214ED786BF4
:1015D700E2FB08E2FA08E2F98C82758300EF120554
:0615E7007D0CECB403DCF6
:0115ED0022DB
:1013C5007FFF75B0F075C0FF20C4027F7020C20298
:1013D5007FB020B5027FD020B4027FE075B00FE466
:1013E500F5C020B304EF4407FF20B204EF440BFF20
:0E13F50020B104EF440DFF20B004EF440EFFC2
:0114030022C6
:10188A001213C5EFF4FF7846E26F5F08F218EFF221
:01189A00222B
:1018AB00C0F9A4B0999282F880908883C6A1868EE5
:03169F008148007F
:1015EE00E4FD7FC01218BB7848E22449F8E2FD7F83
:1015FE00E01218BB7848E2FF7401A807088002C306
:10160E0033D8FCFD7FC01218BB7848E2045407F2B1
:01161E0022A9
:0818F1000000750821D508FD77
:0118F90022CC
:10186700E4FFD2901218F1C2901218F10FEFB408EA
:01187700F17F
:01187800224D
:10147C0053890FE4F58BF58D121867D28E309103DA
:10148C00308FFAC28E208F1CAF8DEFFEAD8BEDFF2F
:10149C00AC06E41201D17B967A43798B783C12002E
:0814AC002602020AC28F7F0034
:0114B4002215
:0414B5007851EFF289
:1014B9001218CA7F9012164E1218557851E2FF126F
:1014C900164E1218551218CA7F9112164E12185537
:1014D9001217597852EFF2D2091217DC1218E5786F
:0314E90052E2FFCD
:0114EC0022DD
:101716007851EFF21218CA7F9012164E1218557FA2
:101726004012164E1218557851E2FF12164E121834
:04173600550218E55B
:101441001216A37FCC12173A7F4412173A1216A331
:101451007FCC12173A7FBE12173A1217777851EFE5
:10146100F2121777EFFE7851E2FDEEFCE41201D1A2
:0A147100E4FBFA7980784112012FA4
:01147B00224E
:0818FA0000AE071FEE70F92299
:101375007852EBF208EAF208E9F208EDF21218CA1F
:101385007FA012164E1218557855E2FF12164E120E
:1013950018557856E2FF14F2EF60227852E2FB0806
:1013A50008E2F92401F218E2FA3400F2120525FFE9
:1013B50012164E1218557FC81218FA80D50218E574
:1012B9007852EBF208EAF208E9F208EDF21218CADC
:1012C9007FA012164E1218557855E2FF12164E12CB
:1012D90018551218CA7FA112164E1218557856E2DF
:1012E900FF14F2EF60281217597852E2FB0808E25E
:1012F900F92401F218E2FA3400F2EF12056B78567C
:10130900E26004C2098002D2091217DC80CF0218F8
:01131900E5EE
:10002600EC4D6011E8497017ED33EC3304600DE4D4
:10003600FCFFFEFD22E933E8330470F80202761273
:10004600024158046009E4CC248150062850090274
:10005600028028400302027DC0E0EB4A7044B9806A
:1000660006D0E0FB02026CEF4E701CBD8008EBFF71
:10007600EAFEE9FD80EBE98DF0A4FEE5F002010F52
:10008600E9CDF9EAFEEBFFEF89F0A4FCE5F0CE89B5
:10009600F0A42EFFE435F0CD89F0A42DFEE435F072
:1000A6008067EF4E7005BD80D780C3EF8BF0A4ACA0
:1000B600F0EE8BF0A42CFCE435F0F8EF8AF0A42CDB
:1000C600E5F038FCE433CB8DF0A42CFCE5F03BF8EE
:1000D600EE8AF0A42CFCE5F038F8E433CF89F0A4DE
:1000E6002CFCE5F038CF3400CE89F0A42FFFE5F0E4
:1000F6003EFEE433C98DF0A42EFEE5F039CD8AF03C
:10010600A42FFFE5F03EFEE43DFD33D0E0FB5007B3
:100116000BBB000F020280EC2CFCEF33FFEE33FE2C
:06012600ED33FD0202585A
:10012C00020280EC5D046005E8590470030202765B
:10013C00120241580460F6EC4860F2EC7004FDFECB
:10014C00FF22C860DB2481C85009C39860025006A6
:10015C0002027D9850CAF582E9294B4A7005AB82A0
:10016C0002026C75F0007C1A7880C3EF9BEE9AED5E
:10017C0099400DC3EF9BFFEE9AFEED99FDE842F01E
:10018C00DC23ACF0D0E0FFD0E0FED0E0FDAB822071
:10019C00E7101BEB60BAEC2CFCEF33FFEE33FEEDFB
:1001AC0033FD020258E803F830E705C0F075F000A3
:1001BC00EF2FFFEE33FEED33FD40B830E7C280AADF
:1001CC0075F020800E75F010800575F0087D007EAE
:1001DC00007F003392D530D50312059FEC334010CD
:1001EC00EF33FFEE33FEED33FDEC33FCD5F0ED22B7
:0E01FC00E5F0247EA2D513CC92E7CDCEFF22F3
:10020A00EDD2E7CD33EC3392D524814006E4FFFEEC
:10021A00FDFC22FCE4CFCECDCC24E0501174FF804B
:10022A00EDC3CC13CCCD13CDCE13CECF13CF0470E8
:07023A00F030D5DE02059F44
:10062400E5082457F8E20508227854301002785778
:10063400E475F0011205B90205252009EB7F2ED2DD
:10064400098018EF540F2490D43440D4FF300D0B9C
:10065400EF24BFB41A0050032461FFE509600215BA
:1006640009050CE50C7002050B30100D7854E47587
:10067400F0011205B9EF02056B0216CA7403D21019
:100684008003E4C210F50878541205C9E4F509F5AD
:100694000BF50CE50960077F2012065F80F5750AEB
:1006A400FFC20AC209C20BC20CC20EC20FC211128F
:1006B400062DFF700D3010057F00120670AF0CAED2
:1006C4000B22B4255FC2D5C20D12062DFF24D0B46F
:1006D4000A00501A75F00A780930D50508B6FF01EA
:1006E40006C6A426F620D5047002D20C80D924CFE5
:1006F400B41A00EF5004C2E5D20D02095CD20A809C
:10070400C6D20980C0D20B80BCD2D580BAD20E80AA
:10071400B47F2012065F200B077401B5090040F175
:10072400120624FF12065F020697D211D20F80959B
:10073400120624FB120624FA120624F94A4B700608
:1007440079537A0A7BFF200B2EE509602A7E008EFE
:100754008275830012053E60060EEE650A70F0C2D3
:10076400D5EBC0E0EAC0E0E9C0E0EE1209BCD0E09D
:10077400F9D0E0FAD0E0FB120525FF60AAEBC0E057
:10078400EAC0E0E9C0E012065FD0E02401F9D0E05D
:100794003400FAD0E0FBE50A0460DCD50AD980878E
:1007A400D20B80A212099F60F7E50A7001041202BD
:1007B4008BA90A600DE50A600914F50A120A46EFCE
:1007C40060F3EA30E702F404C3995077EAF4250AA7
:1007D4000430E701E404F50A800D12099F60C1EAC0
:1007E400050A250A12028BEA786AF230E701E42549
:1007F4000A04D50A04200E01141209BCE4C0E01254
:100804000A46786AE2601320E70714F2120647806A
:100814002204F2D0E014C0E07F00120647E50A602B
:100824000712063E150A800B300E0312063ED0E076
:10083400020697D0E00480C512099F60A0E50A046F
:1008440012028B786AEAF2E50A200E02600104249F
:0C085400041209BC74FF04C0E0120A4644
:10086000120647E50A200E02600312063ED0E0B5EC
:100870000AE87F45120651786AE27F2B30E7047F51
:100880002DF404C0E012065FD0E075F00A84C0F0D9
:10089000120648D0E01206480206977910800279C5
:1008A00008C20FC2118008D2D5790A8004790AC221
:1008B000D5E50A047002F50AE4FAFDFEFF120624EB
:1008C000FC7B08200A13120624FD7B1030090A1253
:1008D0000624FE120624FF7B20EC3382D592D550ED
:1008E00013C3E43009069FFFE49EFEE4200A039D43
:1008F000FDE49CFCE4CBF8C20AEC700CCFCECDCC6E
:10090000E824F8F870F38017C3EF33FFEE33FEED01
:1009100033FDEC33FCEB33FB994002FB0FD8E9EBE2
:10092000300A05F8D0E0C448B20AC0E00AEC4D4EE7
:100930004F78207B0070C2EAB50A0040BCC0E012CC
:1009400009BED0F0D0E0200A04C4C0E0C4B20AC09E
:10095000F0120648D0F0D5F0EB0206971205D20748
:100960003453089B5807054C070142089F4F08A7BE
:100970004408A749071A4308AD5507DE46083C4519
:1009800007A8470A735007092D070D2E07302B07BC
:100990001123072E200A5C2A06C94800000728E513
:1009A0000AB4FF03750A06120624FC120624FD127F
:1009B0000624FE120624FF78630202BA790AA2D541
:1009C000200C14300E09B910020404B9080104A265
:1009D000D5200F02500104200B68920BB50900507E
:1009E00034C0E07F20300C197F30A20B720F720EE2
:1009F000500F120A15C20BC20FC20EC2117F3080F7
:100A00000F300E03E9C0E012065F300E03D0E0F9AC
:100A1000D0E0B509CC300E177F30B9100C12065F4C
:100A20007F58300D077F788003B9080312065F30C6
:100A30000B057F2D02065F7F202011F87F2B200FF2
:100A4000F322920B80CF7F00B4070050052463F897
:100A5000E2FF22286E756C6C2900D20A120624303F
:100A60000AF8C20A780930D50108F60206C92D50E5
:100A70004349581206242403B405004001E4900AB7
:100A80006E93120650743A120650D20C7509040285
:020A9000089BC1
:10024100E9D2E7C933E833F892D5EDD2E7CD33EC03
:0702510033FC5002B2D5227C
:10025800EC30E7100FBF000C0EBE00080DBD000407
:100268000BEB6014A2D5EB13FCED92E7FD2274FFB3
:10027800FCFDFEFF22E480F8A2D574FF13FC7D800C
:03028800E480EF20
:10028B00F920E72824F950037907E4F42402FB183A
:10029B00DBFDE224FB5014E9600DE4F218E204F2FA
:0F02AB00B40A08E4F2D9F57401F20A22C2D5228E
:1002BA00ED33EC3392D5FA602AB4FF33EDC2E77B13
:1002CA00FF60067A0279DFE4227A0279E820D5040F
:1002DA007A0279E3224E614E002B494E46002D499F
:1002EA004E4600E47A08F208DAFC7B00740722E83A
:1002FA00C0E0ECC0E0EDC0E0EEC0E0EFC0E0EA75BF
:10030A00F010A4CAABF075F04DA42BFBE435F0FC59
:10031A00EA2410FAEB34C5FBEC34D9FCEDC2E7FF52
:10032A0075F056A4F42411C5F0F434C58FF0A42A4C
:10033A00E5F03BE43CF220E7141204E5D0E0FFD0FC
:10034A00E0FED0E0FDD0E0FC12012F8014F404128C
:10035A0004E5D0E0FFD0E0FED0E0FDD0E0FC1200E2
:10036A0026D0E0F8E2FAEDD2E7CD33EC332482FB73
:10037A00E4C3CF33CFCE33CECD33CD33DBF37B07DC
:10038A0075F00A846004F2081B0AE5F0F2088FF09F
:10039A00740AA4FFACF08EF0740AA42CFEACF050E0
:1003AA00010C8DF0740AA42CFDE435F0F208DBDEB2
:0303BA00740722A3
:1003BD00020276E86480F8E933E83360110460F0F6
:1003CD00ED33EC337009E8FCE9FDEAFEEBFF2204A6
:1003DD0060DED3EB9FEA9EE99DE8C2E78CF0C2F7A1
:1003ED0095F0400CE8CCF8E9CDF9EACEFAEBCFFB6D
:1003FD0012024185D0F05804700320D5B3E8047083
:10040D00075002B2D502028092D5EC0460F7E4CC1D
:10041D00C0E0C398F8603B94186008400DD0E0FB35
:10042D00020258E4FBFAC9FC8028E830E406E4C96E
:10043D00FBE4CAFCE830E305E4C9CACBFCE8540789
:10044D006010F8C3E913F9EA13FAEB13FBEC13FC94
:10045D00D8F130F52FC3E49CFCEF9BFFEE9AFEED37
:10046D0099FDD0E0FBEF4E4D4C701222DB030202E2
:10047D007DEC2CFCEF33FFEE33FEED33FDED30E77D
:10048D00EB020258EF2BFFEE3AFEED39FDD0E0FB0B
:10049D0050130BBB0003020280ED13FDEE13FEEFB4
:0804AD0013FFEC13FC020258DE
:1004B5003F8000004120000042C80000447A00004F
:1004C500461C400047C35000497424004B189680D1
:1004D5004CBEBC205A0E1BCA6753C21C749DC5AEC8
:1004E500FB60065407601C2323120513EB54386088
:1004F500091204FF12050E120026ECF8EDF9EEFACA
:10050500EFCB22EB12050E80F1543803241C900426
:10051500B5FE93FC0EEE93FD0EEE930ECE93FF22E9
:10116600021252E493A3F8E493A34003F68001F23B
:1011760008DFF48029E493A3F85407240CC8C3338A
:10118600C4540F4420C8834004F456800146F6DF59
:10119600E4800B010204081020408090167BE47E58
:1011A600019360BCA3FF543F30E509541FFEE4934E
:1011B600A360010ECF54C025E060A840B8E493A315
:1011C600FAE493A3F8E493A3C8C582C8CAC583CA40
:1011D600F0A3C8C582C8CAC583CADFE9DEE780BEF8
:0116A2000047
:10052500BB010689828A83E0225002E722BBFE02D4
:09053500E32289828A83E4932207
:10053E00BB010CE58229F582E5833AF583E0225072
:10054E0006E92582F8E622BBFE06E92582F8E222BC
:0D055E00E58229F582E5833AF583E49322D6
:10056B00BB010689828A83F0225002F722BBFE016F
:02057B00F32269
:10057D00F8BB010DE58229F582E5833AF583E8F0B4
:10058D00225006E92582C8F622BBFE05E92582C860
:02059D00F22248
:0E059F00C3E49FFFE49EFEE49DFDE49CFC226D
:0C05AD00ECF208EDF208EEF208EFF2228A
:1005B900FAE2FB0808E2F925F0F218E2CA3AF22257
:0905C900EBF208EAF208E9F22263
:1005D200D083D082F8E4937012740193700DA3A3B8
:1005E20093F8740193F5828883E4737402936860CC
:0605F200EFA3A3A380DFCC
:1016CA00EFB40A07740D1216D5740A309811A89946
:1016DA00B8130CC2983098FDA899C298B811F63080
:0716EA0099FDC299F5992258
:1005F800EF4E6012EF60010EEDBB010B89828A831A
:10060800F0A3DFFCDEFA2289F05007F709DFFCA926
:0C061800F022BBFEFCF309DFFCA9F0227D
:00000001FF
