:030000000202B445
:0C02B400787FE4F6D8FD7581200202FB83
:0E061000010D01010B3C010C0A010900C102A1
:1003BB00E50E706A750E011204E6EF6002F50F3060
:1003CB0001347F4312055DEFC394335005E4F51000
:1003DB008024EFC3946650057510018019EFC39408
:1003EB00995005751002800EEFC394CC5005751013
:1003FB00038003751004200212E50FC3950C400710
:10040B00E50FD3950B4004D2020509300210E50F1E
:0E041B00C3950C4009E50FD3950B5002C202A9
:0104290022B0
:10049700300326E510146011146012146013146001
:1004A7001424047039750B3222750B3C22750B46E8
:1004B70022750B5022750B5A22E510146011146037
:1004C7001214601314601424047013E4F50C2275DD
:0F04D7000C0A22750C1422750C1E22750C28229B
:10034000E50A7076750A011206FBE51CB4880DE516
:100350000D64036003050D22750D0122E50D640295
:10036000704BE51CB48403B20122A201B3502BE50B
:100370001CB44410E50BB45A04750B3222740A25E0
:100380000BF50B22E51C64487023E50CB42804E44B
:10039000F50C22740A250CF50C22E51CB44404D299
:1003A000038007E51CB44805C203020497E50DB4B9
:0B03B0000308E51CB48403E4F50922F7
:1001E100E50860030202B3750801E50D24FE6050C5
:1001F100147003020286240260030202B39006E631
:10020100E493F5137514FF7515FF7516FF7517FF48
:10021100E50F75F0648475F00A84AFF0EF60079024
:1002210006DC93FF80027FFF8F18E50F75F00A84CB
:1002310075F00A84E5F09006DC93F519E50F803B33
:1002410075138C3001059006DE80039006DDE49382
:10025100FF8F147515FFE50C75F00A849006DC9389
:10026100F516E50C75F00A84E5F093F5177518BFDE
:10027100E50B75F00A8493F519E50B75F00A84E531
:10028100F093F51A229006EAE493F5137514FF75BD
:1002910015FF7516FF7517FF7518FF7519FFE5092D
:1002A100D3940940047FBF8007E5099006DC93FFE2
:0302B1008F1A227F
:100524007DFFE5117032751101E50D24FE600C1498
:10053400600E2402700D5305FE80085305FD8003F0
:100544005305FBA202B350053000028003300203BE
:0805540053057F7F80120709A7
:01055C00227C
:100681001206BA1206951203BB1203401201E112BF
:04069100052480F2CA
:03000B0002042AC2
:10042A00C0E0C0F0C083C082C0D075D000C000C098
:10043A0001C002C003C004C005C006C00712058D72
:10044A00050EE50EC394644005750E00B200050A58
:10045A00E50AC3940A4003750A000508E508C3942F
:10046A00C840037508000511E511C3940A400375D5
:10047A001100D007D006D005D004D003D002D00195
:0D048A00D000D0D0D082D083D0F0D0E032AE
:1006BA00538E7F5389F0758A18758CFCC28DD28C43
:0106CA00220D
:0D070900E5A0541F4FF5A08D8053A01F22C6
:10069500E4FD7FA01207097DFF7F80120709D2A91B
:0306A500D2AF22AF
:04064F00D2A07F05B1
:10065300000000000000000000000000000000AEE9
:06066300071FEE70EB2200
:0F06EC00D2A112064FC2A17F05120653C2A0224F
:0C071600C2A112064FD2A17F05020653BB
:0205BB00AD078A
:1005BD00E4FCC2A07F05120653ED30E704D2A18002
:1005CD0002C2A17F05120653D2A0ED25E0FD7F05E5
:0905DD001206530CBC08DBC2A09D
:0105E60022F2
:10063200E4FC12064FED25E0FD30A103430501C2A3
:0C064200A07F051206530CBC08E8AF05B1
:01064E002289
:1006A80012064FA2A1E433FDC2A07F05120653AF84
:0106B800053C
:0106B900221E
:10066900C2A0EF24FF92A17F0512065312064FC2C2
:08067900A0D2A17F0502065387
:06061E00011C00011B009D
:1005E7007FFFC2B2C2B3D2C2D2C420C4027F70207E
:1005F700C2027FB0D2B2D2B3C2C2C2C420B30343D5
:08060700070720B20343070BB3
:01060F0022C8
:0D06FB001205E7EFF4FF651B5FF51C8F1B78
:0107080022CE
:1006DC00C0F9A4B0999282F880908883C6A1868EC6
:0D0624000813FFFFFFFFFFFFFFFF011200A3
:10058D00E4FD7FC012070974132512F8E6FD7FE024
:10059D00120709AF127401A807088002C333D8FCF3
:0D05AD00FD7FC0120709E512045407F51286
:0105BA00221E
:02055D008F1DF0
:10055F001206EC7F901205BB1206A8AF1D1205BB49
:10056F001206A81206EC7F911205BB1206A81206FE
:0D057F00328F1E7F01120669120716AF1E93
:01058C00224C
:0600030000007F26DFFE75
:0100090022D4
:1006CB00E4FED290120003C2901200030EBE08F299
:0106DB0022FC
:1004E600E4F5E9F5F9F5D8C2AF1206CBD2AFD2DE04
:1004F600309105A2DFB340F8C2DE20DF1CAFF9EF72
:10050600FEADE9EDFFAC06E41201197B967A43795C
:0D0516008B783C12000E020152C2DF7F0004
:0105230022B5
:10000E00EC4D6011E8497017ED33EC3304600DE4EC
:10001E00FCFFFEFD22E933E8330470F80201BE1244
:10002E00018958046009E4CC248150062850090245
:10003E0001C82840030201C5C0E0EB4A7044B980F4
:10004E0006D0E0FB0201B4EF4E701CBD8008EBFF42
:10005E00EAFEE9FD80EBE98DF0A4FEE5F00200F783
:10006E00E9CDF9EAFEEBFFEF89F0A4FCE5F0CE89CD
:10007E00F0A42EFFE435F0CD89F0A42DFEE435F08A
:10008E008067EF4E7005BD80D780C3EF8BF0A4ACB8
:10009E00F0EE8BF0A42CFCE435F0F8EF8AF0A42CF3
:1000AE00E5F038FCE433CB8DF0A42CFCE5F03BF806
:1000BE00EE8AF0A42CFCE5F038F8E433CF89F0A4F6
:1000CE002CFCE5F038CF3400CE89F0A42FFFE5F0FC
:1000DE003EFEE433C98DF0A42EFEE5F039CD8AF054
:1000EE00A42FFFE5F03EFEE43DFD33D0E0FB5007CC
:1000FE000BBB000F0201C8EC2CFCEF33FFEE33FEFE
:06010E00ED33FD0201A02B
:1001140075F020800E75F010800575F0087D007E66
:10012400007F003392D530D5031201D3EC33401055
:10013400EF33FFEE33FEED33FDEC33FCD5F0ED226F
:0E014400E5F0247EA2D513CC92E7CDCEFF22AB
:10015200EDD2E7CD33EC3392D524814006E4FFFEA5
:10016200FDFC22FCE4CFCECDCC24E0501174FF8004
:10017200EDC3CC13CCCD13CDCE13CECF13CF0470A1
:07018200F030D5DE0201D3CD
:10018900E9D2E7C933E833F892D5EDD2E7CD33ECBC
:0701990033FC5002B2D52235
:1001A000EC30E7100FBF000C0EBE00080DBD0004C0
:1001B0000BEB6014A2D5EB13FCED92E7FD2274FF6C
:1001C000FCFDFEFF22E480F8A2D574FF13FC7D80C5
:0301D000E480EFD9
:1002C000020681E493A3F8E493A34003F68001F2CD
:1002D00008DFF48029E493A3F85407240CC8C3333F
:1002E000C4540F4420C8834004F456800146F6DF0E
:1002F000E4800B0102040810204080900610E47E88
:10030000019360BCA3FF543F30E509541FFEE49302
:10031000A360010ECF54C025E060A840B8E493A3C9
:10032000FAE493A3F8E493A3C8C582C8CAC583CAF4
:10033000F0A3C8C582C8CAC583CADFE9DEE780BEAC
:0106310000C8
:0E01D300C3E49FFFE49EFEE49DFDE49CFC223D
:00000001FF
